:020000040000FA
:0600000002010A02198A48
:03002B00021DF8BB
:03003300021DDAD1
:03003B00021E1191
:03004300021D8E0D
:03005300021A008E
:03006B00021DB4BF
:1000830002187BE5C754F84401F5C7790122000043
:100093000080FB120086B900030200F4E4792178A2
:1000A30008B800028004F709D8FCE479297802B87B
:1000B30000028004F709D8FCE490028178307909C2
:1000C3008002F0A3D8FCD9FA900AB0AA82AB83903D
:1000D300013A780379028015E493A3AC82AD838A55
:1000E300828B83F0A3AA82AB838C828D83D8E9D9D8
:1000F300E77582597583E4740212011C7582917548
:100103008300740012011C75D00075813F7518813E
:10011300751902759F00020096C09FF59FE473D086
:100123009F22D083D082C09FE493C0E0740193C028
:10013300E0740293F59F22FF0000B400002800281A
:1001430000283075A000A000A000A000000800084F
:10015300E001F0001000100010001000100010006B
:1001630050005000500010001000D00700000000A5
:1001730000000F00010005003075070010000100AA
:1001830081FF0000FFFF02020208025000A00000EE
:1001930000E80302EA91010000D49102DA91010020
:1001A30000FF0A02DE91010000AE0202DA910100B3
:1001B30000000B02EC91010000C40202DA9101007D
:1001C30000010B02E291010000C60202DA91010074
:1001D30000020B02E491080000C70202DA91010059
:1001E30000030B02E691010000040BFF8609860958
:1001F3008609860986098609860986098609860984
:10020300860986098609FFFF01053F10FF000130BB
:10021300750302010600000000000000000000005A
:1002230000000000000000000000000000000000CB
:1002330000FFFF0600800CE8031201254CD50212D3
:10024300012563D50212012592D502120125CBD5D2
:1002530002120125F3D50212012521D6021201252E
:1002630038D6021201254FD60212012565D6021295
:1002730001258CD6021201259FD602120125B5D67F
:1002830002120125DDD602120125FDDC0112012532
:10029300FCDD0112012531DE0112012552DE0112BE
:1002A300012562DE0112012583DE011201258FDFA4
:1002B300011201255CE001120125CFE001120125A5
:1002C30055E10112012598E101120125CFE1011247
:1002D300012555E20112012527E30112012585E3DA
:1002E300011201259DE30112012517E401120125E5
:1002F3001AE4011201251DE401120125C4E40112CF
:100303000125DCE4011201250CE5011201252CE590
:10031300011201251AE601120125D0E60112012579
:1003230062A9021201259BA902120125E4A9021266
:1003330001252FAA021201256DAA02120125AAAADC
:1003430002120125D8AA021201257FAB0212012550
:1003530089AB0212012596AB02120125C9AB021229
:1003630001258BAC0212012597AC02120125AFAC1B
:1003730002120125B9AC021201251CE0021201256B
:100383002AE00212012542E0021201255AE002127C
:100393000125F3910112012591920112012509937F
:1003A300011201251E940112012558940112012501
:1003B300019501120125D695011201253A970112E3
:1003C3000125919701120125189801120125FF9823
:1003D300011201254C9901120125DA990112012517
:1003E300FE9901120125D39B01120125149C0112D0
:1003F3000125369C01120125079D01120125DBC64B
:1004030002120125ADC7021201255DC802120125A2
:1004130072C90212012598C902120125687F0012D0
:10042300012505B50212012517B5021201253DB5B7
:100433000212012565B6021201256FB602120125CB
:10044300C8B70212012587D802120125C3D90212A7
:100453000125E06B00120125436C00120125536C4A
:1004630000120125766C00120125C16C00120125D2
:10047300666D001201255C6E00120125266F0012C5
:1004830001259E7000120125E070001201257E7186
:1004930000120125A4710012012592730012012597
:1004A300977300120125787500120125CC7500128F
:1004B30001252E7600120125567600120125FA76C3
:1004C30000120125BC7700120125ED7700120125EA
:1004D300F077001201253878001201257A7800128E
:1004E3000125E1780012012505CD0212012518CD61
:1004F3000212012531CD021201257CCD0212012504
:1005030057CE02120125E6CE0212012531CF021287
:100513000125841E00120125BD1E00120125091F9D
:1005230000120125941F00120125CD1F0012012581
:10053300E12100120125BD2300120125A825001287
:100543000125DF26001201253F29001201252B2A50
:1005530000120125712B001201257E2C00120125AA
:100563009B2C00120125D32C00120125F52C00121F
:1005730001258F310012012530320012012581320D
:1005830000120125A83200120125F63200120125BE
:10059300563300120125C8B802120125D2B802123F
:1005A30001259DB902120125B8B902120125FCB932
:1005B3000212012534BA021201255DBA0212012585
:1005C300D6BA02120125EBBA021201250FBB0212A1
:1005D300012523BB0212012554BB02120125C5BB11
:1005E300021201250EBC0212012538BC021201259C
:1005F3005DBC021201254EAD0212012518AE021296
:100603000125FBAE0212012571AF02120125B3AF22
:1006130002120125E0B00212012516C601120125BE
:100623003FC60112012558C6011201259DC70112BB
:1006330001257BC8011201259AC80112012527C98A
:10064300011201256AC901120125B7CA0112012548
:1006530056CB01120125D5CD011201256CCE011215
:10066300012540CF0112012522D0011201258ED18F
:100673000112012521D2011201250EDD02120125ED
:1006830077DD02120125CBDD02120125F2DD021214
:100693000125CBA00212012538A10212012583A155
:1006A3000212012578A20212012574A30212012568
:1006B3005EA402120125008002120125428002126B
:1006C30001251C8102120125F58102120125F08208
:1006D30002120125CF83021201253B840212012558
:1006E3000285021201256D8502120125D4850212AD
:1006F3000125FF8502120125708602120125038759
:10070300021201256C87021201258187021201253D
:10071300C98702120125E2870212012547880212C6
:1007230001254A88021201250BCA0212012533CA88
:100733000212012571CA021201252FCB02120125D3
:100743009ACB02120125B6CB02120125DECB02128F
:1007530001250ECC021201251DCC0212012597CCD6
:1007630002120125BDCC021201254CAC0112012558
:10077300E9AD01120125CFAF0112012599B0011294
:100783000125E0B001120125F2B00112012532B1B9
:100793000112012561B101120125ADB1011201253B
:1007A300E5B10112012513B20112012564B2011250
:1007B3000125F3B201120125E1B501120125BBB7F1
:1007C3000112012505B80112012553B801120125B3
:1007D300A1B801120125DCF001120125F9F0011283
:1007E300012593F60112012595F7011201250FF951
:1007F30001120125BDF901120125DE330012012585
:1008030027340012012554340012012587340012C5
:100813000125943400120125A03400120125B234BD
:1008230000120125873500120125E5350012012547
:100833001A3600120125B6370012012503380012BB
:100843000125273800120125943800120125393972
:1008530000120125F53900120125743A0012012511
:10086300383B00120125473B00120125C83B00120B
:100873000125673C00120125993C00120125343DF6
:1008830000120125923D00120125CC3D00120125E5
:100893004D3E00120125163F00120125BF3F0012F5
:1008A30001254640001201259E4000120125FF400C
:1008B30000120125284100120125DE410012012505
:1008C3002843001201256B430012012588430012BF
:1008D3000125A74300120125F24300120125174405
:1008E30000120125404400120125AF4400120125E6
:1008F300F14400120125F545001201258F4600122F
:1009030001255B47001201257447001201253BE7CF
:10091300011201258EE7011201259AE70112012533
:100923006FE80112012596E801120125D1E80112B1
:1009330001253DE90112012571E901120125AAE909
:1009430001120125C2E9011201251BEA0112012549
:1009530034EA011201257DEA0112012590EA011210
:100963000125AAEA01120125C0EA01120125DCEBE7
:1009730001120125EDEC011201253AEE01120125C8
:100983001FEF01120125F17F0012012545B9011264
:10099300012579B901120125E4BC011201252EBEFE
:1009A30001120125F8BE0112012582C001120125A1
:1009B3005DC10112012597C101120125B8C10112C0
:1009C3000125FAC10112012544C201120125F0C219
:1009D30001120125C4C30112012518C40112012506
:1009E3007AC401120125CDC401120125FCC40112F0
:1009F30001253BC501120125A64700120125005020
:100A030000120125065000120125C15500120125CF
:100A1300A759001201258DC30212012503C4021236
:100A2300012519C40212012556C4021201258EC4E0
:100A3300021201250BC50212012546C5021201252A
:100A4300C1C502120125FDC50212012506C6021207
:100A5300012512C6021201252CC60212012551C618
:100A63000212012567C602120125ABC60212012537
:100A7300DFF901120125F2F9011201250CFA011225
:100A8300012535FA0112012578FA01120125B7FA79
:100A930001120125F5FA011201255AFB0112012564
:100AA3006FFB011201257AFB0112012587FB01125D
:100AB30001259EFB01120125ACFB01120125B7FBA9
:100AC30001120125C3FB01120125D6FB01120125E9
:100AD300E1FB0112012504FC01120125ADFC011209
:100AE3000125BDFC01120125D7FC01120125F4FCEF
:100AF3000112012510FD0112012535FD0112012509
:100B03003FFD0112012553FD0112012572FD011262
:100B13000125D3FD01120125D9FD01120125DFFDB8
:100B230001120125E5FD01120125F1FD0112012547
:100B330024FE01120125419F01120125C39F0112C9
:100B430001256CA001120125B4A101120125C2A344
:100B530001120125A8A401120125DDA4011201251A
:100B6300FFA401120125A1A50112012571A70112FC
:100B730001259AA701120125CCA701120125D9A7A6
:100B83000112012524A80112012548A801120125FB
:100B930099AA01120125A3AB01120125FFAB011292
:100BA300012598D201120125A9D3011201258DD463
:100BB30001120125AFD401120125BBD40112012575
:100BC3005FD6011201258CD601120125A2D701128D
:100BD3000125F2D70112012541D90112012516DAA7
:100BE3000112012572DA01120125DDDA0112012554
:100BF3007EDB01120125EADB0112012565DC01120E
:100C0300012593D302120125B8D3021201252ED454
:100C130002120125AB7900120125B47900120125D6
:100C2300BD7900120125957A00120125467C001238
:100C33000125767C00120125A17C00120125CC7CC4
:100C430000120125007D001201253F7D00120125C0
:100C53006A7D00120125D27D00120125FD7D00125F
:100C630001254C7E00120125777E00120125A57E09
:100C730000120125C87E0012012513E3021201258B
:100C83003FE3021201256CE30212012576E302120F
:100C9300012586E302120125A49002120125AE90DC
:100CA30002120125EF90021201253891021201254B
:100CB300729102120125C89102120125E9910212D3
:100CC3000125989402120125A19402120125F5949D
:100CD300021201251E9502120125289502120125F3
:100CE300969502120125269602120125819602127B
:100CF3000125AF9602120125379702120125769737
:100D030002120125AB9702120125BD97021201259C
:100D1300DC9702120125E59702120125A79802121A
:100D2300012525DF02120125A2D102120125D8D106
:100D3300021201250CD20212012559D302120125F8
:100D430090E302120125A6E302120125B0E3021289
:100D53000125FAE30212012520A50212012533A57C
:100D630002120125F7A50212012536A6021201255A
:100D730053A6021201258CA602120125D9A602123E
:100D830001250BA70212012542A70212012555A92D
:100D93000212012599DB02120125BCDB0212012597
:100DA300EBDB0212012583DC02120125C5DC0212F2
:100DB3000125F3E00212012555E10212012581E12B
:100DC30002120125005A001201259F5B0012012522
:100DD3004A5C00120125CA5C00120125565D00120F
:100DE3000125316100120125A86100120125BF62AE
:100DF30000120125F962001201253A630012012550
:100E0300816400120125D7640012012520650012B8
:100E130001258F6500120125FB65001201252C6653
:100E2300001201254466001201255D6700120125A9
:100E33006D67001201252369001201253A6900122A
:100E430001256C69001201250E6B00120125A26BAE
:100E530000120125C5E102120125D6E10212012586
:100E6300ACE402120125EBE40212012580E5021233
:100E7300012576E20212012586E202120125A1E292
:100E83000212012509E30212012523DE02120125C4
:100E9300A8DE021201250CDF021201251FDA02125D
:100EA300012548DA02120125B3DA0212012504DB17
:100EB300021201255FDB0212012536C00212012551
:100EC3005BC00212012578C00212012595C00212EF
:100ED3000125BAC002120125DBC00212012505C19A
:100EE30002120125C2C10212012540C202120125CC
:100EF30067C20212012571C20212012585BC0212CA
:100F030001259CBC0212012516BD02120125FABD62
:100F130002120125D1BF021201253AB102120125A5
:100F2300CAB10212012553B202120125EFB2021215
:100F3300012580B30212012530B4021201253EB40B
:100F430002120125BCB402120125CFB402120125FD
:100F5300E5B402120125EFB40212012502B5021213
:100F63000125A1FE01120125A8FE011201252CFF76
:100F73000112012537FF0112012542FF011201254C
:100F83005CFF01120125EFD60212012541D702129F
:100F93000125B4D70212012521D8021201255BCF06
:100FA3000212012585CF0212012554D00212012518
:100FB30030D1021201256E88021201253A890212EC
:100FC30001257B8902120125B58902120125138AA5
:100FD30002120125678A02120125C58A0212012520
:100FE3005B8B02120125638C02120125ED8D021227
:100FF30001258B8E02120125F28E02120125058F27
:1010030002120125F98F02120125429002120125D5
:10101300FA980212012517990212012597990212D3
:101023000125139B02120125E29B021201254F9F0A
:101033000212012535A0021201252BE5021201251A
:10104300F5E40212012558E502120125DEFF01E055
:1010530066701008A3E066700A08A3E066700408CF
:10106300A3E06622C3E7960809E7960809E796080E
:1010730009E79622C3E09608A3E09608A3E0960842
:10108300A3E09622C008C3E096F50808A3E09642C1
:101093000808A3E096420808A3E09645087001D328
:1010A300D00822080808EAC0E0EBC0E086F0E7A415
:1010B300FA180986F0E7A42AFA180986F0E7A42AA1
:1010C300FA180986F0E7A42AFA1986F0E7A4FBE5E3
:1010D300F02AFA190886F0E7A42BFBE5F03AFA198F
:1010E3000886F0E7A42BFBE5F03AFA18180986F016
:1010F300E7A4C5F02BFBE43AFA1908E7C5F0C6A448
:1011030026F6E5F03BFBE43AFA1886F0E7A4F6E5A9
:10111300F00826F6E43B08F6E43A08F6D0E0FBD004
:10112300E0FA22E4CFC0E0E4CEC0E0E4CDC0E0E4E6
:10113300CCC0E075F020C3E633F608E633F608E6E4
:1011430033F608E633F6181818EC33FCED33FDEEEE
:1011530033FEEF33FFC3EC9709ED9709EE9709EFE1
:1011630097191919400FFFEC97FC09ED97FD09EE4C
:1011730097FE191906D5F0BEECF709EDF709EEF75E
:1011830009EFF7191919D0E0FCD0E0FDD0E0FED04B
:10119300E0FF226016080808C6C313C618C613C6A4
:1011A30018C613C618C613C6D5E0EA227009080884
:1011B30008226016181818C6C333C608C633C608F3
:1011C300C633C608C633C6D5E0EA22E627F60809C1
:1011D300E637F60809E637F60809E637F622E02689
:1011E300F608A3E036F608A3E036F608A3E036F6E1
:1011F30022E026F008A3E036F008A3E036F008A3C7
:10120300E036F022C3E697F60809E697F60809E602
:1012130097F60809E697F622C3E096F008A3E0964E
:10122300F008A3E096F008A3E096F022E056F60853
:10123300A3E056F608A3E056F608A3E056F622E02C
:1012430056F008A3E056F008A3E056F008A3E056D2
:10125300F022E0F608A3E0F608A3E0F608A3E0F620
:1012630022E6F008A3E6F008A3E6F008A3E6F022DE
:10127300E0FAA3E0FBA3E0FCA3E0FD22EAF0A3EB8A
:10128300F0A3ECF0A3EDF022CAC0E0E6F0A308DA85
:10129300FAD0E0FA22CAC0E0E0A3C582CCC582C579
:1012A30083CDC583F0A3C582CCC582C583CDC58359
:1012B300DAE6D0E0CA22C3E498F8E499F91212FA04
:1012C3008026C3E49AFAE49BFBE920E7E91212FAC9
:1012D300E498F8E499F922C3E498F8E499F912122E
:1012E300FAE498F8E499F9C3E49AFAE49BFB22EB55
:1012F30020E7CFE920E7E0B90010BB0008E88AF057
:1013030084F8AAF022E4FBC8FA22EB70227B10C80F
:1013130033C8C933C9335007C39AC3DBF280069A73
:1013230050012ADBEAC833F4C8C933F4C9FA227579
:10133300F008E4C833C8C933C933C99AC99B5004F8
:10134300C92AC93BD5F0ECFBC833F4C8E4C9FA2277
:10135300600D08C6A2E713C618C613C6D5E0F3226C
:10136300600C08C6C313C618C613C6D5E0F42270B2
:101373000422600D18C6C333C608C633C6D5E0F4CD
:101383001822251810AF08F518400215198008F522
:101393001840021519D2AF22C0D0251810AF08F596
:1013A30018500205198008F51850020519D2AFD05C
:1013B300D0222518F58210AF08F5184002151980C0
:1013C30008F51840021519D2AF851983222518F59F
:1013D30082E43519F58322E4732518C582C0E0E55C
:1013E3001934FFC583C0E0E518C3958224F810AF14
:1013F300088583198582188008858319858218D208
:10140300AFCEF0A3E520F0A37808E608F0A3DEFA58
:10141300EFF0A3E58124FAF8E608F0A3E608F0A3C9
:10142300E608F0A30808E608F0A3E608F0A3158190
:101433001581D0E0FED0E0F8158115811581E8C053
:10144300E0EEC0E0222518C582C0E0E51934FFC5EF
:1014530083C0E0E518C3958224F910AF088583198A
:101463008582188008858319858218D2AFCEF0A3B0
:10147300E520F0A37808E608F0A3DEFAEFF0A3E591
:101483008124FBF8E608F0A3E608F0A30808E608C1
:10149300F0A3E608F0A315811581D0E0FED0E0F8B3
:1014A30015811581E8C0E0EEC0E022851983851817
:1014B30082E0A3FEE0A3F5207808E0A3F608DFFAB4
:1014C300E0A3FFE0A3C0E0E0A3C0E0E0A3C0E0E04E
:1014D300A3C0E0E0A3C0E010AF088582188583199C
:1014E3008008858218858319D2AFD083D082020108
:1014F30022851983851882E0A3FEE0A3F5207808EE
:10150300E0A3F608DFFAE0A3FFE0A3C0E0E0A3C096
:10151300E0E0A3C0E0E0A3C0E010AF088582188537
:1015230083198008858218858319D2AFD083D0822E
:1015330022C0D02518C582C0E0E51934FFC583C099
:10154300E0E518C3958224F310AF088583198582DB
:10155300188008858319858218D2AFC8F0A3E9F0F3
:10156300A3EAF0A3EBF0A37908E709F0A3D8FAEC18
:10157300F0A3EDF0A3EEF0A3EFF0A3D0E0F0A3D03F
:10158300E0F0A3D0E0F0A3E520F0A3E5F0F0A32280
:10159300851983851882E0C0E0A3E0F9A3E0FAA3EC
:1015A300E0FBA37808E0F608A3DFFAE0FCA3E0FD84
:1015B300A3E0FEA3E0FFA3E0C0E0A3E0C0E0A3E05C
:1015C300F5D0A3E0F520A3E0A3F5F010AF088583E1
:1015D300198582188008858319858218D2AFD08235
:1015E300D083D0E0F8D0E032740480067402800225
:1015F3007401C0E0F4041213B5D0E012128B22740C
:1016030004800474028000CCC0E0EDC0E0E518C3A0
:101613009CCCAD1950011D10AF068C188D19800696
:101623008C188D19D2AF121298D0E0FDD0E0FC22B5
:10163300D083D082ECC0E0EDC0E0E493A3FCE4935C
:10164300A3FDED4C600D12167FEC24FFFCED34FF7F
:10165300FD80EFE493A3FCE493A3FDED4C600D1236
:1016630016BEEC24FFFCED34FFFD80EFD0E0FDD08F
:10167300E0FCE493A3C0E0E493C0E022C0E0C3E451
:101683009396087401939618400FE49366700808C4
:10169300740193661870007019A3A3C3E4939608AA
:1016A3007401939618A3A3400DD0E0D0E0D0E002DC
:1016B300166FA3A3A3A3A3A3D0E022C0E0C0F08826
:1016C300F0E4936670080874019366187000A8F03C
:1016D300A3A3700BD0F0D0E0D0E0D0E002166FA34C
:0616E300A3D0F0D0E022CC
:1016EC0074F5121448EAFEEBFFEE2434F8EF3400E4
:1016FC00F988088909EE2435121824F8EE243712DB
:10170C001824F50AEC850AF0A4FCAAF0850AF0ED81
:10171C00A42AFDE82CF8E43DF97A257B001212FA94
:10172C00EA850882850983F05407F87401B8000231
:10173C008004C333D8FCC0E0E0131313541FF8EE3D
:10174C0028F8EF3400F9E8245DF582E93400F583DC
:10175C00D0E0F8E0586008850882850983801DEE8A
:10176C002436121824F5F0EA84A8F0EE28F8EF34A9
:10177C0000F9E82438F582E93400F583E0F97F04B8
:10178C000214F474F5121448EAFEEBFFEE24341242
:10179C001824C0E0EE2435F582EF3400F583D0E058
:1017AC00F08E828F83A3A3A3A3A3E0FAA3E0FB8E06
:1017BC00828F83A3A3A3A3A3A3A3E0FCA3E0FDECCC
:1017CC00C39AF50AED9BF50BEE2480F508EF340077
:1017DC00F509850882F583E06401702BEE2481F510
:1017EC0082EF3400F58312160612182D74021213B0
:1017FC009BE960137CF97D04EEFAEFFB1208B485CB
:10180C000882850983E4F0AC0AAD0BEEFAEFFB120B
:10181C0016EC121D8002178AF582EF3400F583E076
:10182C0022C082C083851882851983E0F8A3E0F971
:10183C00C3EA9CEB9D5012C3EC98ED994019C3EA96
:10184C0098EB99501279018010C3EA98EB9940F506
:10185C00C3EC98ED9950EE7900D083D08222EAC384
:10186C009CFAEB9DFB2200008521878522C622C0B5
:10187C00E074EF121534759B00906182E0A2E64093
:10188C000302193CE591A2E6400302193C7591BF95
:10189C009003BEE064057008120A46120A528003D7
:1018AC00120A4C752100120AB8E99003BFF07900B6
:1018BC00120AAC12081E7A017B009003BDE0F912EB
:1018CC000CF8907803E06442600302198590055B84
:1018DC00E014F06003021985C2AF1218E900782AEF
:1018EC00D0E0F618D0E0F6E59F5407F9700590911A
:1018FC00C480039091887808121255E9C4C0E0782E
:10190C0029E65508F50808E65509F509740B780819
:10191C00121363D0E02508F8906270E0A2E740F85B
:10192C00E8C333906272F0906270E0D2E0F08049CC
:10193C00E0A2E55024E591A2E5501E7591DF9003DD
:10194C00BEE0640D70139003E0E004F064287002B4
:10195C00E4F07A00E0F9120B2A906181E0A2E350E6
:10196C0009E5E9A2E3500375E9F7A3E0A2E7500902
:10197C00E591A2E7500375917F7F04021593C0E0B7
:10198C00C0D0C082C083906183E0A2E05009E5BF63
:10199C00A2E0500375BFFEE0A2E15009E5BFA2E151
:1019AC00500375BFFDE0A2E25009E5BFA2E250036F
:1019BC0075BFFBE0A2E35009E5BFA2E3500375BF7E
:1019CC00F7E0A2E45009E5BFA2E4500375BFEFE0D5
:1019DC00A2E55009E5BFA2E5500375BFDFE0A2E622
:1019EC005009E5BFA2E6500375BFBFD083D082D0AB
:1019FC00D0D0E032C0E074F2121534E5A7A2E45066
:101A0C000FE5A1A2E4500953A7EF75A1EF121A54E8
:101A1C00E5A7A2E5500CE5A1A2E5500653A7DF759A
:101A2C00A1DFE5A7A2E15009E5A1A2E1500375A150
:101A3C00FDE5A7A2E2500CE5A1A2E2500653A7FBDC
:101A4C0075A1FB7F0102159374F8121448752101DE
:101A5C009003BEE0640670077A007B00120A2EA287
:101A6C00AFE433FED2AF9003C4E0640170187A2067
:101A7C007B009003BDE0F9120D7C7A207B00900373
:101A8C00BDE0F9120CFE906182E0D2E6F090055AAE
:101A9C00E0602185C62280169003C3E064017008C3
:101AAC00E5C654F84405F5C653BEFC12187474010F
:101ABC00652160E4EEA2E092AF7F010214F4000015
:101ACC008E238F2485822885832785188285198308
:101ADC00E0CEA3E0CF852882852783EBC9EAC8ED49
:101AEC00CBECCA75F010C3E833C8E933C9EA33CA82
:101AFC00EB33CBC3EA9EF526EB9FF525B35004AB35
:101B0C0025AA26EC33CCED33CDD5F0DAAE23AF24B9
:101B1C002274F11214488A088B098C0A8D0B740FED
:101B2C001213D0780C1212559091A0780812122F23
:101B3C009091A0780C12122F7808790C1210675023
:101B4C00157808790C12120790917078081210878A
:101B5C00401579018013780C790812120790917056
:101B6C00780C12108740EB79007F080214F474EDA6
:101B7C001214488A088B098C0A8D0B74131213D01B
:101B8C00780C1212559091A0780812122F9091A0F7
:101B9C00780C12122F780C79081210674011780803
:101BAC00790C121207AA08AB09AC0AAD0B8022758E
:101BBC0010007511007512007513017810790C1254
:101BCC001207781079081211CEAA10AB11AC12AD15
:101BDC00137F0C0214F49091A078081212558A828B
:101BEC008B8378081212427F040214F474F51214D9
:101BFC00488C828D8378081212558A828B837808E0
:101C0C0012121B121C4CC3E098F0A3E099121C3E5C
:101C1C00401E9091CC78081212558A828B837808DA
:101C2C001211F48E828F83E02420F0A3E0344EF066
:101C3C0080A4F08E828F83C3E09420A3E0944E2284
:101C4C00EA2404F8EB3400F9E8FEE9FF8C828D837A
:101C5C00A3A3A3A3E0F8A3E0F98E828F832274F5EB
:101C6C00121448E9FE900510E0FAA3E0FBEEC33332
:101C7C00F8E433F974DB28F582749039F583E02AA3
:101C8C00F508A3E03BF50978081215EF9091C812FE
:101C9C001273121ACC740212139B8A088B098C0AC9
:101CAC008D0B74107808121196AA08AB097F0402E8
:101CBC0014F474F11214488A0C8B0D8C0E8D0F7465
:101CCC000F1213D0E0FAA3E0FB74111213D0E0F55D
:101CDC0008A3E0F50974131213D0E0FEA3E0FF781B
:101CEC00081215EFEA2401F508EB3400F509E4F5C8
:101CFC000AF50B780C79081210A690917C780812D2
:101D0C001255780C79081210A6AA0CAB0DAC0EADBE
:101D1C000F121ACC740212139B8B09EA450960044A
:101D2C007A0180027A00EC2AFCED3400FDECF8ED2F
:101D3C00F97A717B021212FA88088909E4F50AF51E
:101D4C000B8E828F837808121264ECF8EDF97A719D
:101D5C007B021212FA8A088B097405780812137226
:101D6C008E828F83A3A3A3A3E508F0A3E509F07FDC
:101D7C00080214F4C082C083E9906000F0D083D0D4
:101D8C008222C0E074F2121534A2AFE433FED2AF5B
:101D9C00C2C0E5D1A2E4500653D1EF120F5CEEA203
:101DAC00E092AF7F01021593C0E074F2121534A2D9
:101DBC00AFE433FED2AFE589A2E15003120EB47545
:101DCC008900C2C5EEA2E092AF7F01021593C0E07C
:101DDC0074F2121534A2AFE433FED2AFE58BA2E05D
:101DEC005003120EB4758B00C2E880D8C0E0C0D08E
:101DFC00E8C0E0E5A8D2AFC2C7A2E792AFD0E0F846
:101E0C00D0D0D0E032C0E0C0D0E8C0E0E9C0E0C043
:101E1C0008C009C082C083A2AFE433F9D2AF9009E5
:101E2C00FBE0F8A3E0687008539AFBA374018026CA
:101E3C00C2E99009FBE0F50874012508F0747B25D4
:101E4C0008F58274093400F583E0F5C19009FBE0D4
:101E5C00C394804002E4F0E9A2E092AFD083D08238
:0F1E6C00D009D008D0E0F9D0E0F8D0D0D0E032E3
:101E7C00FFFFFFFFFFFFFFFF74F71213DCE9900277
:101E8C00DCF07C147D037AFF7BFF1205849002DD6D
:101E9C0074FFF0A3F0A3E4F0A3F0790512051E90F3
:101EAC0002DCE0F91204587A907B0512072E022C02
:101EBC00CE74F41213DC8A088B09EB5480603090DA
:101ECC0002DCE0F9120CE08A0A8B0BAE0AAF0BEEC7
:101EDC004F60138E828F83E064B0700312052AEE7C
:101EEC00FAEFFB120CCEAA08E5096480FB80047A99
:101EFC00007B00021F8FF0A312310CA32274F2128C
:101F0C0013DC890AE975F017A4FEAFF09002E1E446
:101F1C00F09002DF121F89600A120D3A9002DFE482
:101F2C00F0A3F0EEFAEFFB120D348A088B09EA45A8
:101F3C0009602FEEFCEFFD7900120CB69002DFE584
:101F4C0008F0A3E509F07B008008121F73E4F0A3EE
:101F5C00F00BEBC3950A40F2E50A9002E1F0790030
:101F6C0080027913023314EB75F017A4F8A9F090E2
:101F7C0002DFE028FAA3E0398A82F5832212290ACB
:101F8C00EA4B227F040214AEC082C0839002E2129C
:101F9C001FC7601C88828983A3A3E06A7003A3E037
:101FAC006B8882898370E8A3A3A3A31229068004FB
:101FBC007A007B00D083D082020122123321E849BF
:101FCC002274EE1213DC74FC121385EAFEEBFF850F
:101FDC001882851983E4F0A3F0EE2402122C58EE3B
:101FEC002405123113EE2404F50EEF12257FE024A4
:101FFC00FE603924FC604624FE605224FE605E24A0
:10200C00FE70030220E024FE700302214424FE70C3
:10201C000302215324FE700302216224FC7003028C
:10202C00217124FE70030221800221BD9002FB74F9
:10203C0017F0A3E41221D21202420221BD851882AC
:10204C00851983AC82AD8312053002218D851882EF
:10205C00851983AC82AD8312053602218D850C085F
:10206C00850D0974021213D0AC82AD83850882856C
:10207C0009831229061204768A0C8B0DAC0CAD0D5B
:10208C00EC4D603BE4F50CF50D780C1215EF750C6E
:10209C00FB750D02780C1215EF750CFC750D0278A2
:1020AC000C1215EF74081213D012160612334512C7
:1020BC00139BE9F50C700B1228FC12025A800F7559
:1020CC000C018508828509831221C0122C78850C9D
:1020DC000802219074021213D0AC82AD83850C825D
:1020EC00850D831226D1603C850C82850D83A3A3BC
:1020FC001216067510FB75110278101215EF75107B
:10210C00FC75110278101215EF74081213D0121608
:10211C000612334512139BE9F509700B1228FC12B9
:10212C000260800F750901850C82850D831221C018
:10213C00122C78850908804C851882851983AC820D
:10214C00AD8312053C803A851882851983AC82AD2B
:10215C0083120542802B851882851983AC82AD834E
:10216C00120548801C851882851983AC82AD8312B8
:10217C00054E800D851882851983AC82AD831205BE
:10218C0054E9F508E50860298E828F83A3E0641476
:10219C00601F850E82850F83E09002FB1221CA120C
:1021AC00331D9002FC122C78E508A31221D21202E6
:1021BC003C022B6712332185188285198322F08506
:1021CC00188285198322F07CFB7D02850A82850B9F
:1021DC008312290A2274EE1213DC74FC1213858A02
:1021EC000A8B0B8C0E8D0FEA2405F508EB3400F5E9
:1021FC00097C157D0079007AFB7B02120CB6E50890
:10220C002402F50CE509123116851882851983858F
:10221C00821085831178101215EF85088285098349
:10222C00A3A3A3A31226C81215EFE5082405F510E5
:10223C00E5093400F51178101215EF850C82850D27
:10224C0083122A1D120470740612139B8A108B11B0
:10225C00AE10AF11E50A2402F50AE50B122C5BEE69
:10226C004F700302239F801774021213D012290699
:10227C0088828983EAF0A3EBF09002FBE004F090F3
:10228C0002FBE0C39405400302239FE4F510F51113
:10229C0078101215EF7510E475110278101215EF05
:1022AC007510E575110278101215EF74061213D023
:1022BC001216067910EEFCEFFD12334712139BE950
:1022CC00705E850882850983A3A3A3A3A3A3A3E0BF
:1022DC00F89002E4E06870481226C81215EF7CE50D
:1022EC007D02E5082408FAE5093400FB120CB074F1
:1022FC000212139BE960298E828F83A3A3A3A312DE
:10230C0029069002FBE0F510740278101213727417
:10231C00FC2510F58274023511F583EAF0A3EBF07D
:10232C0074021213D085821085831178101215EF68
:10233C0074021213D0121606850C82850D83122995
:10234C002C12139B8A108B11AE10AF119002FBE074
:10235C00F5107511007402781012137274FB2510AD
:10236C00F874023511F988828983A3121F897003CE
:10237C0002226BE82403080808E93400F9EE4F60E8
:10238C00030222748882898374FFF0A3F09002FB0D
:10239C00E004F09002FBE0600A1228FC12024E7975
:1023AC0000800B850882850983122C6F790A022B19
:1023BC006774EA1213DC74FE1213858C128D13EA07
:1023CC002405F50CEB12332F12313F7508007509FB
:1023DC0000EA2402F510EB3400F5118518828519FA
:1023EC008385820A85830B780A1215EF850C82850A
:1023FC000D83A3A3A3A31225951215EFE50C2405B9
:10240C00F50AE50D122C5B780A1215EF850C828506
:10241C000D83122599120470740612139B8A0A8B71
:10242C000BEA450B700302253AEA2404F50EEB1275
:10243C00257F12313F8A828B83A3A3A3E0F98510F9
:10244C0082851183122910600302253AE4F514F5F4
:10245C001578141215EF7514E4751502781412150D
:10246C00EF7514E575150278141215EF7406121336
:10247C00D01216067913AC0AAD0B85108285118328
:10248C0012334D12139BE9F509600302253A9002B1
:10249C00E4E0F8E5087009E024029002FCF08014F6
:1024AC009002FCE0FCE82402FAE43400FBEA6C70D5
:1024BC0001EB707E850882AA821226BF9414122624
:1024CC00B7506B850E82850F83E0C0E074FD2A1235
:1024DC002576D0E0F00508850E82850F83A3E0C039
:1024EC00E085080A74FD250A122576D0E0F005086F
:1024FC009002E41225951215EF7CE57D0285080A01
:10250C0074FD250A12258912139B9002E4E025081C
:10251C00F50874FF6E700374FF6F6012EE24010EE9
:10252C00EF3400FFE508C3941450030223E7E508D9
:10253C00601312291A851082851183122906120242
:10254C005479008014E509700375090A8512828597
:10255C001383EEF0A3EFF0A909740212139B7F0E04
:10256C000214AE85080C74FD250CF582740234003F
:10257C00F583223400F50F850E82F58322FA74025E
:10258C003400FB120C9E74022212317522A3A3128A
:10259C00259F22122C66FDEEFAEFFB2274EE12132D
:1025AC00DC74FE1213858C0E8D0FEA2405F50CEBF2
:1025BC00123116750B009002FBE4F0F50AEA2402C6
:1025CC00F508EB3400F50980449002FBE0FA900228
:1025DC00E4E0F81226BF94171226B7400D9002FBC8
:1025EC00E0F87416C3989002E4F01226C81215EFA6
:1025FC007CE57D0274FC2AFA740212258C12139B62
:10260C009002E4E0F89002FBE028F0050AE50C24C7
:10261C0016F582E50D12257AE0F8E50AC398507498
:10262C009002FBE0C39416506BE50AC333F8E43315
:10263C00F9E50C28FEE50D39FF851882851983AC68
:10264C0082AD838E828F831226D17008750B011296
:10265C002C6B8050E4F510F51178101215EF7510F5
:10266C00E475110278101215EF7510E575110278EA
:10267C00101215EF74061213D0121606791685086F
:10268C008285098312334D12139BE9F50B700302FB
:10269C0025D580BB7CFB7D028508828509831229A8
:1026AC0006120266A90B7402022B69E99400C36539
:1026BC00D03322EA28F8E43400F9E822E0F510756A
:1026CC001100781022122B5E8A108B11AC10AD11F8
:1026DC00EC4D2274EA1213DC74FC1213858A0C8BF9
:1026EC000D8C128D13EA2405F50AEB122C5B750880
:1026FC0000750900E50A2402F510E50B3400F5110C
:10270C0074021213D085820E85830F780E1215EF8A
:10271C00850A82850B83A3A3A3A312311B1215EF89
:10272C00E50A2405F50EE50B3400F50F780E1215AD
:10273C00EF851082851183122C611229001204700E
:10274C00740612139B8A0E8B0FAE0EAF0FE50C2482
:10275C0002F50EE50D3400F50F80388882898374FC
:10276C00FFF0050812256F74FFF005089002E4E0F5
:10277C00F50C750D00780C1215EF7CE57D028508C3
:10278C000C74FD250C12258912139B9002E4E02594
:10279C0008F508EE4F60278E828F83A3A3A3E0F980
:1027AC00850E82850F83122910EE2404123113E951
:1027BC006027850C82850D831228F2122C78E5088F
:1027CC0070030228D812291A850E82850F831229CC
:1027DC000612026C79000228EDE4F514F515781454
:1027EC001215EF7514E475150278141215EF7514A3
:1027FC00E575150278141215EF74081213D0121621
:10280C00067911EEFCEFFD850E82850F8312334D98
:10281C0012139BE9F509709A850882AA82EA900244
:10282C00E47009E024049002FCF08025E0F89002AA
:10283C00FCE0F514E82404FCE43400FDEC651470B1
:10284C0001ED70811226BF94121226B740030227A5
:10285C00D1850C82850D83E0C0E074FD2A122576AB
:10286C00D0E0F00508850C82850D83A3E0C0E01252
:10287C00256FD0E012293585820C85830D780C12DA
:10288C0015EF74041213D01216068510828511836D
:10289C0012292C12139B8A0C8B0DAE0CAF0D8508D4
:1028AC000C74FD250CF874023400F9EE4F70030221
:1028BC002767851882851983E088828983122935D8
:1028CC00A3E0C0E012256FD0E0022775E509700384
:1028DC0075090A850A82850B831228F2122C78A9B5
:1028EC000974040225671233218512828513832211
:1028FC007CFB7D02850A82850B8312290A22E0FA71
:10290C00A3E0FB2212290A12045EE9F509229002C7
:10291C00FCE0F5F0E508849002FBF07CFB7D0222E4
:10292C0012259F12047C740422F0050885188285F8
:10293C0019832274EC1213DC74FE1213858A088B33
:10294C00098C0E8D0FEA2405FEEB3400FF122B4888
:10295C00EE2418123113EA450B70030229EB122BEB
:10296C00315029122A108A108B11EA4511606B79AB
:10297C0012AC0AAD0B8508828509831229068510D5
:10298C00828511831213DAE9F50A7058E4F50AF519
:10299C000B780A1215EF8E828F83A3A3E0F50A78C9
:1029AC000A1215EFEE2403122C58780A1215EF8E2A
:1029BC00828F83122A1D120572740612139BE9F57D
:1029CC000A7021850C82850D83E0701F8508828535
:1029DC0009831229061202728011750A0E8009757C
:1029EC000A018004E50A6003122C6B850C82850DAC
:1029FC0083E0600479008002A90A740212139B7FA1
:102A0C000C0214AE85188285198312290A120566E8
:102A1C0022122C66FD85088285098312290A2274EC
:102A2C00EE1213DC74FE1213858A088B098C0C8D44
:102A3C000DEA2405FEEB3400FF750E00122B48EA5C
:102A4C00450B7003022B0F122B31502C122A108ABB
:102A5C000E8B0FEA450F604A7912AC0AAD0B850854
:102A6C0082850983122906850E82850F831213DA5B
:102A7C00E9F50E6003022B12850882850983122C5E
:102A8C00EDAA0AFB122B2370147AFF7BFF122B2367
:102A9C00606C88828983E50AF0A3E50BF0750A0067
:102AAC008007750E0E805F050A9002E1E0FAE50AD8
:102ABC00C39A504AE50A75F017A4FAABF0888289DC
:102ACC0083A3A3E02AFAA3E03BFB8A828B83122C1C
:102ADC0061EC4D70D2750A17750B00780A1215EF60
:102AEC00EEFCEFFD120C9E740212139BEEFCEFFD3C
:102AFC008508828509831229061202788014750EC6
:102B0C00098003750E01123319850C82850D831211
:102B1C002C78A90E0226B212055A8A108B11A81015
:102B2C00A911E84922E5082402F508E5093400F565
:102B3C00098A828B83A3A3A3E0A2E5228518828550
:102B4C001983AC82AD838E828F83122B5E8A0A8BA3
:102B5C000B22E0FAA3E0FB12047622740412139BFE
:102B6C007F0A0214AE74EC1213DC8C108D11EA2463
:102B7C0005F50CEB123116750F00EA2402F50AEB81
:102B8C00122C5B850A82F5831229061233D370034B
:102B9C00022C4D750E008071850C82850D83E064CE
:102BAC0001704F8E828F83A3A31216068E828F83A1
:102BBC00A3A3A3A3E0F51275130078121215EFEE80
:102BCC002405F512EF3400F51378121215EF1229C3
:102BDC0000120572740612139BE9F50F6014850C34
:102BEC0082850D83E4F012331985108285118312CE
:102BFC002C787C177D007900EEFAEFFB120CB68E68
:102C0C00828F83E4F0A3F0050E9002E1E0F8E50E6C
:102C1C00C398501EE50E75F017A4F8A9F08508822C
:102C2C00850983A3A3123339122C61EC4D60030286
:102C3C002BA485088285098374FFF0A3F0E50F703F
:102C4C000612290012027EA90F022A0BF50AEF3494
:102C5C0000F50B22A3122C66FD22E0FCA3E0228ED1
:102C6C00828F83123321850E82850F83E8F0A3E9CE
:102C7C00F022C082C0839002DDE06A7003A3E06B97
:102C8C0070067ADD7B0280047A007B00021FC07420
:102C9C00F71213DC7F00EF75F003A4F8A9F0EC2811
:102CAC00F8ED39F988828983E06A7003A3E06B70D0
:102CBC0006E8FAE9FB800B0FEFC3940240D87A00C8
:102CCC007B007F010214AE74F61213DC12322470F6
:102CDC00067A007B008007A3A3A3A3122906023265
:102CEC00E5E0F50AA3E0F50B2274E81213DC74FBA3
:102CFC00121385E9851882851983F08A168B178C37
:102D0C000E8D0F741F1213D012315574211213D063
:102D1C00122CED74231213D012313F7510008C82DB
:102D2C008D83A3A3A3E0A2E4502A741D1213D01226
:102D3C002A168A828B83E58245837003022E0179E1
:102D4C000AAC0EAD0FAA16AB171213DAE9F5106028
:102D5C0003022E04850E82850F83E0640260030259
:102D6C0030BAA312331D850882850983A38582128C
:102D7C00858313E50E2406F50CE50F1231168882B7
:102D8C008983E0FAA3E0F9EA2400F514E439F51597
:102D9C007814121633010000280128C92D070002EF
:102DAC0028A02E0328102E0029CA2F0129F22F0249
:102DBC0029992F0329CA2F04295B30BA30EE4F70A2
:102DCC003E850C82850D83123130FAE9FB8A828BA9
:102DDC0083E0850A82850B8312316C1215EF8A828F
:102DEC008B83A3122C66FDAA08AB09120C9E7402ED
:102DFC0012139B800375100EA910740502332775EE
:102E0C00100B80F4EE4F70F7850A82850B837401EA
:102E1C00F0123145850882850983F07C007D0085A0
:102E2C000E82850F83A3A3A3A3E02401FAA3E034AD
:102E3C0000FB120476EA4B60418A828B83E0240209
:102E4C00F8850A82850B83E028F0EA2404F8EB3439
:102E5C0000F988828983E085128285138312317E82
:102E6C0012316C1215EF8A828B83122C60E50824C8
:102E7C0003FAE5093400FB022DF7850A82850B83E2
:102E8C00E02404F07C047D007900AA12AB13120C30
:102E9C00B6022E04EE4F6003022E0B123145FEA338
:102EAC00E0FF850A82850B837404F0EE8508828529
:102EBC000983F0EF851282851383F074031213D00B
:102ECC00AC82AD83EEFAEFFB1232127003022F7656
:102EDC008A828B83A3A312313B74011213D0858297
:102EEC000E85830F780E1215EF74051213D012167F
:102EFC00067CFF7DFF12047C740412139B8B0FEA7B
:102F0C00450F7033850C82850D8312311B1215EF22
:102F1C00850C82850D83A31216067C027D007AE057
:102F2C007B91120314740412139BE9700A7401123E
:102F3C0013D074FFF0A3F08E828F83E064027034A0
:102F4C00750C02750D00780C1215EF8E828F8312A2
:102F5C002C60E5082404FAE50912258C12139B85D4
:102F6C000A82850B83E02402800974011213D0EECF
:102F7C00F0A3EFF074011213D012312CF074011283
:102F8C0013D0A3123124A3A3A3F0022E04EE4F609E
:102F9C0003022E0B850C82850D83122C61AA16ABB5
:102FAC001712058A850A82850B837402F0EA85085C
:102FBC0082850983F0851282851383EB80CBEE4FDB
:102FCC006003022E0B123145F8A3E0F9850A8285C5
:102FDC000B837402F0E8850882850983F0E9851279
:102FEC008285138380A3850C82850D83122906129A
:102FFC000C98EAFC8C82A882C39EE49F404BE86E3E
:10300C007001EF70047C00801F851882851983E0A5
:10301C00FAEE2AFAEF3400FBC3EA98EB9400500363
:10302C00E08004EECCC39CFCEC850A82850B83F01B
:10303C008C0A750B00780A1215EF850C82850D83AE
:10304C00E02EFCA3E03F022DF2751007022E04EED9
:10305C004F6003022E0B850C82850D8312331D8568
:10306C000A82850B837407F08882898312312412BB
:10307C00310CE0851282851383F0E82402FAE934DE
:10308C0000FB8A828B8312312412315D12312CA306
:10309C00123166123135F0E82405F8E93400F9886C
:1030AC00828983123135A312317EA3022F92741DB3
:1030BC001213D012321D7003022E0112331D880C14
:1030CC00890DE8450D7003022E018E108F117810BA
:1030DC001215EF780A1215EF78081215EF74061214
:1030EC0013D0E0F9AC0EAD0FAA16AB17850C828588
:1030FC000D831213DA740612139BE9F510022E04D9
:10310C00F088828983A322F50CEF3400F50D22E0C0
:10311C00F50E750F00780E22E08508828509832252
:10312C0012318522123321E822123185A3A322A366
:10313C00A3A3A3E0FEA3E0FF22850C82850D83E010
:10314C00F8A3E0F5838882E022E0F508A3E0F50916
:10315C0022A3A3F08A828B83A322121F04A3A3228F
:10316C00F08A828B8312317522E0F50A750B007898
:10317C000A2212310C12318522E0850882850983DE
:10318C00A3A32274EE1213DC74FE1213858A0A8B2D
:10319C000BECFAEDFB74141213D0E0F510A3E0F570
:1031AC001174161213D0E0FE74181213D0E0F50E41
:1031BC00A3E0F50F851882851983AC82AD8312329A
:1031CC0012603E85188285198312321D602FA3A3CD
:1031DC00123155E50845096024780E1215EF781068
:1031EC001215EFEEF9AC0CAD0DAA0AAB0B850882EB
:1031FC008509831213DA740412139B8006790E80EE
:10320C000279010226B21204768A0C8B0DEA450D66
:10321C002212290A123224221205248A828B83E577
:10322C008245832274F61213DC74FE121385740C1F
:10323C001213D0123130851882851983F074011263
:10324C0013D0E9F0E4F508F50978081215EF7508C4
:10325C000278081215EF74041213D0858208858346
:10326C000978081215EF120572740612139B74027A
:10327C0012139B806474F71213DCEAFEEBFF8908CF
:10328C007C147D0312058AEA5402600BA908EEFA3D
:10329C00EFFB12046A80027901022CCE74F6121331
:1032AC00DC74FF6A700374FF6B701C7B00EB75F0B1
:1032BC0003A4F8A9F0EC28F8ED39F91232EA0BEB7B
:1032CC00C39402501480E61205608A088B09A80882
:1032DC00A909E84960031232EA7F020214AE88821F
:1032EC00898374FF121F02E4F02274F61213DC12AD
:1032FC0005608A828B83E58245836006A3A3E0FA8E
:10330C0080027A007B0080D17F060214AE8E828F01
:10331C008312332122E0F8A3E0F92212139B7F10D1
:10332C000214AE3400F50D850C82F58322E028FEE4
:10333C00A3E039FF8E828F83227916850A82850B52
:10334C008312290A12056C74082274F21213DCEA37
:10335C00FEEBFF890B7401650B600E7402650B703C
:10336C0063790112074CE9705BEEFAEFFB1233D371
:10337C006047750A00800B7C177D007900120CB633
:10338C00050A9002E1E0F8E50AC3985021E50A75B8
:10339C00F017A4F8A9F0850882850983A3A3E02877
:1033AC00FAA3E039FB8A828B83121FC770C9850888
:1033BC008285098374FFF0A3F07C147D03EEFAEF91
:1033CC00FB12058402331412055A8A088B09EA454C
:1033DC000922C082C0839061907404F0A37448F0F9
:1033EC00A3E4F09061807440F09061BC7407F0909D
:1033FC0061877469F09061B67416F0790012082434
:10340C00790212082A901E7CE493F46006E493F986
:10341C001208007905120B0C023820C082C083E917
:10342C00540FF9906185E0696012E5C654804449F7
:10343C00F5C6E59E547F644970F8E9F053C680E503
:10344C009E547F70FA02382074F71213DCE5A8FE44
:10345C0053A87E12080CC2BA539AFEC289759B00FF
:10346C00C2C212081275A91175B905120818D2BA80
:10347C00439A0174805E42A8023DADC082C0839025
:10348C006181E4F0A302381D75E90075910075BFE8
:10349C0000020122C082C083906181E4F0A374C059
:1034AC00F0A3E402381FC082C08374F81213859015
:1034BC0003C0123C8FE84970030235699003C0E0E9
:1034CC00544060237908851882851983AA82AB83BE
:1034DC0012091A851882851983AA82AB831205DE1C
:1034EC009003C0E054BFF0E054806010790C7A7CFB
:1034FC007B0512091A9003C0E0547FF0E0A2E05063
:10350C0008790012357154FEF0E05402600879011C
:10351C0012357154FDF0E054046008790012357CCA
:10352C0054FBF0E054086008790112357C54F7F034
:10353C00E054106008790212357C54EFF0E054200E
:10354C006008790312357C54DFF0A3E05401600D60
:10355C001208361205F09003C1E054FEF074081204
:10356C00139B0238201208241205E49003C0E022B9
:10357C0012082A1205EA9003C0E022C082C083E937
:10358C00600514602A804F90619A7433F0A37455CF
:10359C00F09061A0743AF0900558E064017009C293
:1035AC00919003C27467802D9003C2746180269041
:1035BC00619A743FF0A3745AF09061A0747FF090FC
:1035CC000558E064017009D2919003C274718005B2
:1035DC009003C2746AF0023820C082C083E9600B89
:1035EC0014600D14600F1460118020901E808015E3
:1035FC00901E818010901E82800B900558E0640113
:10360C0060F3901E83E493906186F002382074EE90
:10361C001213DC74F4121385851882851983AC821D
:10362C00AD8375839175828C7404121298901E80F0
:10363C0093F460030237AC907808E0C39402500313
:10364C0002378C74041213D0AC82AD8375839175E0
:10365C00824A7408121298F97AFF7BFF7FFF7E0072
:10366C008982858210801874086E70030237417449
:10367C00096E7003023741740A6E7003023741E51C
:10368C0010C333FCE433FD74041213D0E5822CF523
:10369C0082E5833DF583E0F50EA3E0F50F8E08750A
:1036AC0009007402780812137274482508FC7478A7
:1036BC003509FD8C828D83780812125574087808B0
:1036CC0012119685080C85090D8C828D8378081251
:1036DC00125574187808121196E50C4508F508E592
:1036EC000DF509C3E50E9508E50F95098C828D83C0
:1036FC0078081212558C828D837808121255741822
:10370C0078084014121196E50C4508FCAD0DE50E39
:10371C00C39CFCE50F9D800F121196E50C4508C368
:10372C00950EFCE50D950FFDC3EC9AED9B5006EC48
:10373C00FAEDFBEEFF0EEEC39413500302367374D6
:10374C00FF6A700374FF6B602D8F08740278081287
:10375C001372744812443B74783509F58378081257
:10376C001255851882851983E5822510F582E5832B
:10377C001241C8E508F009E9C39404500302366409
:10378C0075080175090078081215EF74021213D030
:10379C00AC82AD837AA07B07120E90740212139B3D
:1037AC00740C12139B7F0A0214AEC082C08390610A
:1037BC0086E0F8901E83E493687009901E82E4936F
:1037CC00906186F09061AE7468F0A3746AF09062B8
:1037DC004574FBF0A304F053F4FD43FE029005582E
:1037EC007401F09061A0E0643A7004790080027971
:1037FC0001120824023820C082C08390050AE064BC
:10380C0001700A90050FE06004790C800279008049
:10381C0003F0A3F0D083D082020122C082C0837552
:10382C00E1F190050DE0604D1460081460511460D6
:10383C00498051120848900503E0F97A047B05127F
:10384C000A8E909184121273120AC49091B01212C3
:10385C0073120A9A90050EE0F9120AA67901120B5E
:10386C0000900501E024161239B57460F0A37408B9
:10387C00F07900809F12084E80BC12085480B71259
:10388C00085A80B2791280EB74F41213DC75D90DDE
:10389C009004F2E0A2E0E4331313F8123921484407
:1038AC0001F5D9780012399F40FB7800880874F331
:1038BC0012443B74041239A940F275E1959004F25C
:1038CC00E0F97AF37B04120A94900B6574D6F0A39A
:1038DC0074071239C41239E41239DB123B1C123949
:1038EC002B780812125590918078081211E1909162
:1038FC00A0780812122F1239AF78081212649005B2
:10390C0001E024141239B57413F09003BE7402F064
:10391C007F040214AE900503E0C4333354C02290EC
:10392C000501E0F8A3E0F5838882A3A32274F612C4
:10393C0013DC123AED8AD9780012399F40FB7800DB
:10394C008006123A53123B9FE8C39940F5123ADFB6
:10395C0012399F40FB780080081244377405123BE3
:10396C009FE8C39940F375E195900B6574E2F0A361
:10397C0074071239C41239CE1212731239AF1212E3
:10398C007F900501E024141239B57412F09003BE37
:10399C00023D8A880874042508F5827405123CFBE4
:1039AC00940622900501E0240EF8A3E01239BC2203
:1039BC003400F98882898322123B0574DCF0A374ED
:1039CC0007221239E41239DB123B209091CC22F001
:1039DC00A374F4F0A37407221239E8221239EC22F2
:1039EC00F0A37486F0A374092274F61213DC123A55
:1039FC00481239214402F5D9780012399F40FB78DE
:103A0C00008006123A53123B9FE8C39940F575E1CA
:103A1C0095900B65123A5EF0A3123A5E1239D112F0
:103A2C0012731239AF12127F900501E0241412396F
:103A3C00B57414F09003BE7404023D8C900513E031
:103A4C00F9740729F5D922880874142508F58274AD
:103A5C00052274EE123A6B123A6BF0A3740722F043
:103A6C00A37407F0A374EE2274F61213DC123AED71
:103A7C0074064AF5D9780012399F40FB780080060D
:103A8C00123A53123B9FE8C39940F5123ADF1239B0
:103A9C009F40FB780080081244377405123B9FE866
:103AAC00C39940F375E195900B6574E8F0A3740726
:103ABC00123AFB1239CE1212731239AF12127F90D6
:103ACC000501E024141239B57415F09003BE74038B
:103ADC00023D8C900533123A4B74044AF5D97800A8
:103AEC0022123A48900503E0C4333354C0FA221230
:103AFC003B057486F0A3740922123B0922123B1673
:103B0C007486F0A37409123B16221239ECF0A3222E
:103B1C00123B2022F0900B737486F0A37409123BB5
:103B2C00097486F0A374091239E8F022C082C083AC
:103B3C0012392BA3A3A3A3E402381D74F71213DCD0
:103B4C0012467DF8740339F9E82405FAE93400FBD0
:103B5C008A828B831243EC88828983A3A3A3A3A3B9
:103B6C00A3A3A3A3ECF0A3EDF088828983A3A3A362
:103B7C00A3A3A3A3E024FFF8A3E034FFF98A828B6C
:103B8C0083E8F0A3E9F0023DAD8808745C2508F5E4
:103B9C00827405124313F5D90822EAFEEBFF9061FB
:103BAC00D0E0F87480C398FAEE248322123BBE94C2
:103BBC0004221241D6E0F5D90AEAC32274F6121394
:103BCC00DCEAFEEBFF9061D0E0707575D90E75D90B
:103BDC000375D9047A008A08EE250812474B248C09
:103BEC00123C6140F17A008A08EE250812474B24FA
:103BFC0084123BB840F175E1957908EE248C123CA7
:103C0C005A2484123C517C008C82AA82C3E49AF818
:103C1C0095E0F9EE28F8EF39F9E8248BF582E912F2
:103C2C00430FC0E0EE2A12474B24ABF582E9124158
:103C3C00C8D0E0F00CECC3940840CD123D178002C4
:103C4C007900023D8DFAEF3400FB12090E22123C72
:103C5C00517904EE22123BBE940822C082C08375B7
:103C6C00D90275D90375D90575E195EA2470F582E9
:103C7C00EB123C8CEA2472F582EB123D29023820BF
:103C8C001241D9123C9322E0F8A3E0F92274F61207
:103C9C0013DCEAFEEBFF90055C7406123D05121571
:103CAC00EF7C01790312403112139B75D90675D93B
:103CBC00037800123CEB40FB75E1959003BEE06489
:103CCC00087017EE2470F582EF123C8CEE2472F51E
:103CDC0082EF1241C8E8F0A3E9F07901023D8D882A
:103CEC0008745C2508F5827405123CFB94052212BD
:103CFC0041D9E0F5D908E8C322F075085C750905CF
:103D0C0078082275E1957904120ACAEE2470F582BE
:103D1C00EF1241D9123C93EE2472F582EF1241D985
:103D2C00E8F0A3E9F079012274F61213DCEAFEEB59
:103D3C00FF9061D0E07043790190055C740BF090BA
:103D4C0003BEE06407701775085C750905780812E6
:103D5C0015EF7C01090912403112139B790574018E
:103D6C0029F5D975D90378008003123B95E8C399DE
:103D7C0040F875E195123D178002790080037401BB
:103D8C00F07F020214AE74F71213DCEAFEEBFF753F
:103D9C00D90375D90375D90DEE24DE123DB2123D4F
:103DAC000F7F010214AEF582EF124313F5D9227F77
:103DBC00030214AE7401250AF5D975D903780022D3
:103DCC0074F51213DC123E41600478048002780012
:103DDC00E8240BF8EAC3984041750A0990055C7415
:103DEC0009F07908123E2A601475085C750905788B
:103DFC00081215EF12402912139B750A0D123DC0C3
:103E0C008003123B95E8C3950A40F775E195790458
:103E1C00120ACA123FA67901800279008091EE2421
:103E2C00E3FCEF3400FD7A5D7B05120908850882FE
:103E3C00850983E022123BA6F8EF1243E0F583E0FC
:103E4C002274F31213DC8A088B0912403CFAE50841
:103E5C002483F50AEB123F0B60047804800278008F
:103E6C00E82408F8EAC3985003023F04750C069046
:103E7C00055C740CF09003DBE090055DF07402C0FF
:103E8C00E0F97CDC7D037A5E7B05120908D0E0F951
:103E9C007CDE7D03120908850A82850B83E0601C99
:103EAC00750A5C750B05780A1215EF7C067903AA66
:103EBC0008AB0912403112139B750C0A7401250CC6
:103ECC00F5D975D90378008009880A745C250A1223
:103EDC003B9BE8C3950C40F175E1957904120ACA35
:103EEC00E5082470F582E509123C8CE5082472F58E
:103EFC0082E509123D29800279007F050214AE3457
:103F0C0000F50B850A82F583E02274F61213DCEAC5
:103F1C00FEEBFF12403CFCEE2483F8EF12403760BE
:103F2C00047A0480027A00EA2404FAECC39A405E14
:103F3C007A0290055CEAF0EE24F5F582EF123FB2BE
:103F4C00601975085C75090578081215EF7C027903
:103F5C0003EEFA12403112139B7A0674012AF5D93A
:103F6C0075D90378008003123B95E8C39A40F87525
:103F7C00E195EE2474123F9FEE2480123F9F123F76
:103F8C00A67904120ACAEE240D123D1A8002790099
:103F9C00023D8DF582EF12412222EE241DF582EFB7
:103FAC00124122A3F02212431390055DF0888289FE
:103FBC0083E02274F61213DC12403CFEEA2483F8F0
:103FCC00EB12403760047C0480027C00EC2404FC7F
:103FDC00EEC39C40437C0290055C7407F0EA24F627
:103FEC00F582EB123FB2601575085C75090578080F
:103FFC001215EF790312403112139B7C0674012CBD
:10400C00F5D975D90378008003123B95E8C39C4021
:10401C00F875E195790180027900023D8D7C097972
:10402C0003EEFAEFFB12097A7402221239BCE02279
:10403C009061D0E0F87480C3982274F51213DCE917
:10404C00FEA2AFE433F50AC2AF7F00EA246FF8EBAF
:10405C003400F980010F88828983E0FCEFC39C5007
:10406C00188F08EA2508FCEB3400FDEC246BF58274
:10407C00ED12430F6E70DE8010EA2CFAEB3400FB6D
:10408C001241C2EE123FB804F0E50AA2E092AF0270
:10409C003DBB74F61213DCA2AFE433FFC2AFEA24CB
:1040AC006FF8EB12474DFCE9FD8C828D83E014F028
:1040BC007E0080218E08EA2508F8EB12474D246C0F
:1040CC00F582E912430FC0E0E8246BF582E9124156
:1040DC00C8D0E0F00E8C828D83E0F8EEC39840D40B
:1040EC00EA246E1241C574FF124117EFA2E092AFA1
:1040FC00023D8DC082C083E5A8F8C2AF1241C2E96F
:10410C00124117E8A2E792AF023820F0EA246AF5D0
:10411C0082EB124122221241D9E4F02274F21213E2
:10412C00DC8C828D83A3A3A3A3E0541FF0EA243676
:10413C001244848E828F83E4F0F50C850C82858288
:10414C000AEC250AF8ED1243DCF583E0C0E0EA2521
:10415C000AF8EB1241CCD0E0F0750D008508828591
:10416C000983E0F50A750B00E50D780A121353E587
:10417C000AA2E0502AE50C33333354F8250DC0E085
:10418C008E828F83E0F8EA28F8EB12474D2438F53D
:10419C0082E91241C8D0E0F08E828F83E004F005F2
:1041AC000DE50DC3940840B4050CE50CC394054013
:1041BC008A7F060214AEEA246BF582EB1241D922F7
:1041CC003400F9E8245D1241D622F582E93400F579
:1041DC00832274F61213DC9003EAE0640170077A10
:1041EC00007B000243097E009003F0E070F1740143
:1041FC00F0A3E4F0A3F090045004F0900453E4F026
:10420C00A3F090045604F09003F3E41243209003BF
:10421C00FD04F0900423E4F09091A8121273900422
:10422C000612127F90040AE4F0A3F0A3F090046E3F
:10423C00F0900462F09004577480F0A3E4F09004C2
:10424C005DF0900455F09004D91243189004E2F0FC
:10425C00900471F09004C1F0A3F09091A812127325
:10426C009004C312127F9091A81212739004C7127B
:10427C00127F9004CDE4F09004CFF09004CBF0903A
:10428C0004E51243188E08745912443B740412410D
:10429C00C874FFF00EEEC3940440EA7E008E82A830
:1042AC008274F928F582740412430FC0E0744B2811
:1042BC00F58274041241C8D0E0F00EEEC3940540B0
:1042CC00DC7E008E82A88274D228F582740312439D
:1042DC000FC0E074D128F58274041241C8D0E0F00C
:1042EC000EEEC3940840DC9003EAE004F064017025
:1042FC00089003F2E09003ECF07AEE7B03023D8D24
:10430C00F582EF124313221241D9E022124320A36B
:10431C0012432022F0A3F0A3F0A3F022C082C083AA
:10432C00EA2403F582EB12430F6008E4F09003EBF0
:10433C00E014F09003EAE014F070069003EC74FFC4
:10434C00F08A828B83A3A3E4F09004FEE0700D90BE
:10435C0003EBE0640170057900120AAC023820C04E
:10436C0082C0839003F1E4F09003F0F09003EAF044
:10437C00A3F0A374FFF075E1F1023820C082C08372
:10438C00780079009003F1E0600478EE790388827C
:10439C008983A3A3A3A3E0F902382074F61213DCDB
:1043AC00EAFEEBFF1208C0EE2465F8EF1243DC12B4
:1043BC0043EAEC4D60109003EC124675850882853B
:1043CC000983E4F0A3F0EEFAEFFB1209B0023D8D85
:1043DC001243E0223400F988088909888222F58387
:1043EC00E0FCA3E0FD2274F71213DCEAFEEBFF8E77
:1043FC00828F83A3A3A3A3E0FA7B00120656EEFAE6
:10440C00EFFB1208D2120992023DAD74F61213DCC6
:10441C007800880874D212443B7403123FA208E857
:10442C00C3940840ED9003D2023D8A880874342569
:10443C0008F5822274F61213DCEA240D124484EC83
:10444C002403F8ED3400F988088909EC2407F8ED09
:10445C0012474DFCE9FD12448E1212FA8E828F83A4
:10446C00E8F0A3E9F012448E1212FA8B09EA45091E
:10447C0060031244A1023D8DF8EB3400F9E8FEE92B
:10448C00FF228C828D83123C93850882850983E000
:10449C00FAA3E0FB228E828F83E02401F0A3E034A8
:1044AC0000F02274F61213DCEA242EF582EB3400B1
:1044BC001243EAEA2470124484780079FAECFAED9B
:1044CC00FB1212FA8E828F83E8F0A3E9F078007960
:1044DC00FAECFAEDFB1212FA8B09EA4509600312A9
:1044EC0044A1023D8D74F01213DCEAFEEBFF741054
:1044FC001213D07808121255120A5E8A0C8B0D8C8E
:10450C000E8D0F909174780C1211E19091A0780C93
:10451C0012122F780C1215EB8E828F8312392E12F9
:10452C001273121B1D740412139BE960030245D90C
:10453C008E828F83E02402F8A3E012474DFAE9FB48
:10454C008A828B8378081211F49091A07808121249
:10455C00558A828B837808121242EE240BF582EF77
:10456C001241C8C082C0838E828F83A3A3A3A3A34E
:10457C00E02401F8A3E03400F9D083D082E0687025
:10458C0003A3E069700479018045EE2407F8EF126B
:10459C0039BC1244A5EE24741247527014EE2475E3
:1045AC001245E07003A3E06D70078A828B8312447E
:1045BC00A5EE24801247527014EE24811245E0704F
:1045CC0003A3E06D70078A828B831244A579007F68
:1045DC00080214AEFAEF3400FB8A828B83E0FCA352
:1045EC00E0FD88828983E06C2274F31213DC12469E
:1045FC007DFE740339FFEE2404F50AEF3400F50B4D
:10460C00EE2465F508EF3400F50980101243EC85B3
:10461C000882850983E4F0A3F012466F8508828531
:10462C0009831243ECEC4D6030EE246412430CF51C
:10463C000C780C1215F3EE246312430CF9EEFAEF1E
:10464C00FB1208FC740112139BE98508828509830F
:10465C0060BA123C8FE84970077C007D0012466FEF
:10466C00023F06850A82850B83E0FA7B0012061452
:10467C00229003ECE0F875F004A4C8AAF02AF974AF
:10468C00EE282274F21213DCEAFEEBFF890A740E98
:10469C001213D0E0FAEE246212475260030247462E
:1046AC0012403CF50CEE248312430CFB600478049E
:1046BC00800278008908E928F8E412474D240208A2
:1046CC0008E93400F9E50C98E499A2D265D033409E
:1046DC0065EA7005750B028003750B01EB60337591
:1046EC00090078081215EF7A5C7B051209447402F4
:1046FC0012139B75085C75090578081215EFAC0A46
:10470C00A90B12402D12139B7404250AF50A7C5C2C
:10471C007D057401250AF5D9850BD97800800A88A6
:10472C0008EC12443BED123B9FE8C3950A40F07530
:10473C00E195790080067907800279FF0241BDF886
:10474C00EF3400F9E822F582EF124313640122C022
:10475C0082C0838003124789E9F874FF281904701A
:10476C00F4ECFAEDFB023820C082C08380031247C0
:10477C0089E9F874FF28190470F40238208C828DB2
:10478C0083E08A828B83F08C828D83A3AC82AD8391
:10479C008A828B83A3AA82AB832274E81213DC90E7
:1047AC007803E06442705E90055BE014F07056C2D2
:1047BC00AF1247C000782AD0E0F618D0E0F6E59F9B
:1047CC005407F970059091C4800390918878081271
:1047DC001255E9C4C0E07829E65508F50808E655F5
:1047EC0009F509740B7808121363D0E02508F890CA
:1047FC006270E0A2E740F8E8C333906272F0906216
:10480C0070E0D2E0F09003ECE0F874FF6870030203
:10481C004AD8E81255312402F8EF3401F98882891C
:10482C00831255ABEA4B600FEE2401F582EF340195
:10483C00F583E0F9120CF8EE2405F514EF3400F5CD
:10484C00158E828F83A3A3A3A3A3A3A3124FBD1280
:10485C005547906054E09003C5F0906055E090038C
:10486C00C6F0906056E09003C7F0906057E090035C
:10487C00C8F0906058E09003C9F0906059E0900344
:10488C00CAF090605AE09003CBF090605BE090032C
:10489C00CCF090605CE0FC9003CDF090605DE0FDAE
:1048AC009003CEF090605EE0F50C9003CFF090603A
:1048BC005FE0F50D9003D0F09003CBE0F5108C0881
:1048CC002508F8E43400F9850C08124F688D08129D
:1048DC004F68850D08124F68EE24F71254F31255E9
:1048EC009D8C8285820AEE24F9F582EF124FB1EE8F
:1048FC0024FB124FA5EE24FFFAEF3400FB8A828BC7
:10490C0083E0F508A3E0F509E5084509603A9060F5
:10491C0000E0C333F508E433F5098A828B83E02584
:10492C0008F50EA3E03509850E82F58312559D908E
:10493C006000E0C333F8E433F98A828B8312555854
:10494C00244AF582E9124FB1EE240BF8EF3400F94A
:10495C00EE241DF50EEF3400F50FEE2420FAEF34A3
:10496C0000FBEE241C1254DBEE240FF50AEF34008E
:10497C00F50BE510700BED7008E50C7004E50D609F
:10498C0079851482851583125573EE240D1254FD0E
:10499C002CFCA3E03DFD88828983ECF0A3EDF012A2
:1049AC004F827003124FE89003C6E06024850882A2
:1049BC008509837401F0EE246A1254FD7013EE2401
:1049CC00741254FD700BEE24801254FD7003124FC0
:1049DC00E8906062E08E828F837003024A6BE02461
:1049EC0006FCA3E03400FD12558A120A588E828F01
:1049FC0083E0241212554DE48079EC6018124F823A
:104A0C0070238A828B83125573850E82850F83ECFB
:104A1C00F0A3ED800FEE24FD124FA5850E82850FBD
:104A2C0083E4F0A3F088828983124FBDE0687003A1
:104A3C00A3E06960030249B3850A82850B83E060B9
:104A4C000F851482851583E064057002A3E0600B6A
:104A5C007908EEFAEFFB1208D88071793E80F3E00A
:104A6C00F8A3E0F5838882A3A3A3A3A3A3E4F0A3F4
:104A7C00125946F0A3F0906060E0C0E0EE24691299
:104A8C0054F3D0E0F09003CBE0F81254FA28F0EE97
:104A9C00247AF516EF3400F517024BC4900559E053
:104AAC006401702B120B181254FA7006906060742B
:104ABC0080F0EEFAEFFB120A0AE96401600E1208AC
:104ACC00F6120A04E964016003120992024FFBEE2C
:104ADC0024831254FD6004780480027800E50CC332
:104AEC0098F91206088A0A8B0BEA450B60B6EE247D
:104AFC00831254FD70048A088B0978008015E5D95F
:104B0C00C0E08810E5082510F582E5091254F6D0AE
:104B1C00E0F008E8C3950C40E5EE24831254FD60E8
:104B2C003774FC250CF50C78081215EFAC0CA90D9C
:104B3C00EEFAEFFB120980740212139BE9701974E0
:104B4C0003650D7003024BFEE50A24FBFAE50B34FA
:104B5C00FFFB120D3A024BFE7403650D7003024C01
:104B6C0003850C1075110078101215EFAC08AD0907
:104B7C00AA0AAB0B120944740212139BEE2469129D
:104B8C0054FD64807004747F8001E0F5087808128D
:104B9C0015F3E50DF50878081215F3A90CAC0AAD60
:104BAC000B9003ECE0FA7B0012060E740212139BBE
:104BBC00120B241254FA14F0E07003024AB8750870
:104BCC005C750905750A00750B00E5D914F50CE543
:104BDC00D95403F50D601B7403650D7003024B066D
:104BEC00E50C7003024AA8EE24681254FD6003021F
:104BFC004AA8793D024A5E850882850983E0FAA3BA
:104C0C00858208858309A3A882A983603814700360
:104C1C00024D56147003024F0C147003024D97246E
:104C2C00FD7003024E3A146087147003024E612427
:104C3C00FE7003024E43147003024E5C14700302A8
:104C4C004EB4024EB9850882850983E0C0E0EE249B
:104C5C00771254F3D0E0F0880889097902AC08ADDA
:104C6C0009EE2478124F297902AC08AD09AA16ABCB
:104C7C00171209028A088B097902AC08AD09EE24D7
:104C8C007C124F4E247E124F29EE24771254FDC312
:104C9C0033F0EE24781254F3124FDDEE24781255D3
:104CAC0044124FD7851682851783125547EE247E02
:104CBC001254FDF50AA3E0F50B7404780A12137272
:104CCC00EE247E1254F3E50AF0A3E50BF07902AC66
:104CDC0008AD09EE2475124F3A24751254F3C082B4
:104CEC00C083851482851583125564D083D08212BB
:104CFC004FC740057928024A5EEE247C1254FD24ED
:104D0C0001F508A3E01254DEE4F50AF50B124FD7B7
:104D1C0088108911E4F512F513780879101210A691
:104D2C00EE247E1254FDF510A3E0F51178107908ED
:104D3C001210674005793B024A5EEE247412592426
:104D4C00125946E4F0A3F0024BBC7402C0E07905A2
:104D5C00AC08AD097AF97B04120902EAFCEBFDD030
:104D6C00E0F9EE2481124F3A24811254F3C082C030
:104D7C0083851482851583125564D083D082124F9B
:104D8C00C74003024D00EE248080B2EE24E21254A0
:104D9C00FD70147A00124F59C0E0124F71D0E0F040
:104DAC000AEAC3940840EEEE24E31254FDA2E0EEAE
:104DBC00401424DE1254F3741AF0790DEEFAEFFB62
:104DCC001208A2024BBC124F9824E112552279080A
:104DDC00AC08AD09EE249C124F4E24A4124F48ACE3
:104DEC0008AD09EE2494124F48EE2494FAEF3400E7
:104DFC00FB12090E7904AC08AD09EE2488124F3F62
:104E0C007904EE2488FAEF3400FB12090EEE248CA0
:104E1C00FAEF3400FB120920EE2484FAEF3400FB85
:104E2C001209269003C0E04480F07904808EEE24B1
:104E3C00DF125924024D52EE124F9824D3125514FE
:104E4C00EE24DD12593224D4125514790B024DC8BC
:104E5C00EE24E080DC7A00124F59C0E0124F71D082
:104E6C00E0F00AEAC3940840EE7A008A82A88274C1
:104E7C00D228F58274031254F6C082C0838508824E
:104E8C00850983E0D083D082FBE05BC0E0124F71D8
:104E9C00D0E0124F90A38582088583090AEAC39457
:104EAC000840C87909024DC8125938700DEE24F625
:104EBC001254F3EAF07907024DC8850882850983FC
:104ECC00E0C0E0EE24EE1254F3D0E0F0880889093B
:104EDC007402C0E0F9AC08AD09EE24EF124F3FEAC2
:104EEC00FCEBFDD0E0F9EE24F1124F3A24EB125911
:104EFC003224ED1254FD6003024BBC790C024DC8F8
:104F0C00EE24F5F8EF125527E088828983F0EE2421
:104F1C00F412552288828983E0F9024A5E124F2DE1
:104F2C0022FAEF3400FB1209028A088B0922124F75
:104F3C003FEE22FAEF3400FB12090222124F2D79B8
:104F4C000822124F2D7902AC08AD09EE228A82A8F4
:104F5C008274D228F582740312550422E82508F8CD
:104F6C00E93400F922EE28F8EF3400F9E824E3F5EF
:104F7C0082E912551D22850A82850B83E4124F901B
:104F8C00E0640122F085088285098322246212558F
:104F9C001AE4125955E4F0EE221255012401F0A343
:104FAC00E03400F022125504250AF0A3E03400F09E
:104FBC002212556885148285158322E0C398F8A3C4
:104FCC00E099F9C3E894FFE9947F2285168285174E
:104FDC0083125568E8C333F8E933F9228A828B834C
:104FEC00125568850E82850F83E8F0A3E9F0227FC5
:104FFC00100214AE53BFEF02012274E81213DC90BE
:10500C0003ECE0F81255312420F50EEF3400F50FC7
:10501C00EE241CF50CEF3400F50DEE241DF510EF0D
:10502C003400F5119061D0E0600B851082851183FE
:10503C00E4F0A38030EE246A1254FD7029EE24743F
:10504C001254FD7021EE24801254FD7019850C82CF
:10505C00850D83E06401700E850E82850F831255D9
:10506C0079E8F0A3E9F0EE24071254DB8E828F83EB
:10507C00A3A3A3A3A3125579125558240108E9122E
:10508C005527125547EEFAEFFB120A10E96401603E
:10509C0008900500E06401701F851082851183E47F
:1050AC00F0A3F08E828F83A3A3A3A3A3E02401F823
:1050BC00A3E0125527125547EE247412593B600396
:1050CC0002526DEE24751254E31216068508828581
:1050DC0009831255738E828F83A3A3A3A3A31255A6
:1050EC00AB12182D740212139BE9700302526D85DA
:1050FC000A82850B831255B12477FCEF3400FDEE48
:10510C00FAEFFB1208E41254F0124FEC850C828576
:10511C000D83E4F0851082851183F0A3F0EE240F4B
:10512C0012552285088285098312556E240D12545E
:10513C00FD28F8A3E039F9EE240B1255448E828F2A
:10514C0083A3A3A3A3A3125573850A82850B831291
:10515C0055AB12186A8A088B09EE242E1255A5E459
:10516C00F50AF50B8A0C8B0DF50EF50F7808790CFA
:10517C001210A6EE247812550A7808790C1211CE6A
:10518C0085080C85090D850A0E850B0FEE247EF51E
:10519C0016EF3400F517851682F58312556E247AB6
:1051AC00F512EF3400F513851282F583125573EE68
:1051BC002430F50AEF3400F50BEE24321254DBEAFE
:1051CC006C7002EB6D7024850882850983E0687031
:1051DC0003A3E0697015EE247C1255A5850A82851F
:1051EC000B83E06A7003A3E06B603188148915743B
:1051FC0004781412136378141215EF1254F012166B
:10520C0006EDC313FDEC13FC8E828F83A3A3A3A323
:10521C00E0FA7B0012065C740412139BEE247712E6
:10522C0054FDC0E0EE242B1254F3D0E0F085128232
:10523C0085138312556E242E125544EE247C125580
:10524C0061850A82850B83125547851682851783E3
:10525C001255B1FAEFFB1208EAEE247412551480C1
:10526C000BEE242E12550AE4F50EF50F85108285EF
:10527C001183E0F514A3E0F515EE24121254DBEEC5
:10528C00241FF512EF3400F513EE24181254E378B2
:10529C000C1210527011851282851383E0F8E514FC
:1052AC00687002E515602378081215EFEE241012D1
:1052BC0054F312160678141215EFAA0CAB0DAC0EA3
:1052CC00AD0F121CBE740612139B850A82850B83CC
:1052DC00780C121264851082851183E08512828508
:1052EC001383F0AC08AD09125583906062E060073F
:1052FC007C447D911255838E828F831255648882F3
:10530C008983A3A3E82408FCE93400FD7406121277
:10531C00988510828511831255AB8E828F83E02481
:10532C0002F8A3E03400F9E8FCE9FD8A108B11E4E3
:10533C00F512F5139091A478101211E17810790CF4
:10534C001210A68C828D8378101211F49091A07893
:10535C00101212558C828D8378101212429004FE1A
:10536C00E06401600302545B7901120AAC8E828FF7
:10537C0083E0F50AA3E0F50B9091CC121273E50AC9
:10538C00240EF582E50B1254F612127FE50A241254
:10539C00F8E50B3400F9E8FCE9FD85088285098302
:1053AC00780C121255850C08850D09E50875F0E28C
:1053BC00A4C508A8F075F004A428F875F0E2E50976
:1053CC00A428F5098C828D83E02508F0A3E035092B
:1053DC00F0EE24161254FDF508A3E0F509740478D8
:1053EC0008121363E5082401F8E5093400125598F6
:1053FC00906062E08C828D8370030254B3E02410C1
:10540C00F0A3E03401F0EE240F1254FD6016EE24EC
:10541C002B1254FDF875F071A4C8AAF075F002A413
:10542C002A125598E50A2414F582E50B1254F674E9
:10543C0010F08E828F83E0241612554D7466F0A303
:10544C007408F0EEFAEFFB12178F7900024FFB9005
:10545C00916C780C1210875003025379EA4B60035D
:10546C00025379780C1215EBEEFAEFFB1208F0747C
:10547C000412139BE964016003025379EE240F12AA
:10548C0054FD60128E828F83A3A3A3A3A3E06405B3
:10549C007002A3E0600479088002793EEEFAEFFB1B
:1054AC001208D8790180A5E02410F8A3E034FFF9A4
:1054BC007A717B021212FA88088909EE242E125591
:1054CC0061C3E50898E50999500302541280C7F5A9
:1054DC0008EF3400F50922F50AEF3400F50B850AC4
:1054EC0082F58322EE247CF582EF12551D22EE24E8
:1054FC006712550122F582EF3400F583E022125534
:10550C0001F50CA3E0F50D2212551AE4F022F582F8
:10551C00EF3400F58322125928F0223400F9850863
:10552C00828509832275F004A4C8AAF02AF974EEC6
:10553C0028FE740339FFEE2212551AE8F0A3E9F0A5
:10554C0022F8A3E03400F98882898322E028F8A3AA
:10555C00E039F9E82212551A12556822E0F8A3E056
:10556C00F922125568EE22E0FCA3E0FD22125568E8
:10557C008510828511832212558A121BF8228E8285
:10558C008F83E02402FAA3E03400FB22F98C828D95
:10559C0083E028F0A3E039F022F582EF12551DE0EC
:1055AC00FAA3E0FB22125568850882850983E8F08E
:1055BC00A3E9F0EE2274E81213DCEAFEEBFFEE2412
:1055CC00DFF510EF3400F511EE24E0F50EEF3400AA
:1055DC00F50FEE2462F516EF3400F517EE2483F583
:1055EC000CEF3400F50DEE241DF512EF3400F5131D
:1055FC00EE2404F50AEF3400F50BEE246A1254DBAA
:10560C0080399003C8E0700302585EEEFAEFFB128B
:10561C0008A8EE24A4F514EF3400F515781412152F
:10562C00EFEE249CFCEF3400FD850A82850B83E0B1
:10563C00FA7B00120668740212139BEE246F12544C
:10564C00FD606AEE246B1254FD24FE602F24FE6074
:10565C00601460741470030257861470030259129C
:10566C0024FE700302587524FE70030257F2147066
:10567C000302589C14700302583580BF850882853C
:10568C000983E0640170179003C7E0700302585E51
:10569C007916EEFAEFFB1208D87901024FFBEEFAFD
:1056AC00EFFB120896E9850882850983F079008062
:1056BC00EA850882850983E06401700302560EEEC8
:1056CC00FAEFFB12086C80DD850882850983E064A3
:1056DC000170479003C8E06027850C82850D8374A8
:1056EC0001F09091A8121273EE24D51254F31212F9
:1056FC007F9091A8121273EE24D91254F312127FD8
:10570C00851082851183E06401600302585E79067E
:10571C00EEFAEFFB1208AE025647EE24D312593BB9
:10572C00701CEEFAEFFB120872E96401600302567A
:10573C00B9851082851183E41259410256B8EE24C2
:10574C00D41254FD70030256B9EE24B3F514EF34A1
:10575C0000F51578141215EFEE248CFCEF3400FDD7
:10576C00EE24C3FAEF3400FB120932740212139BBD
:10577C00EE24D3125924F0025647850882850983FA
:10578C00E0640170579003C8E0700302585E125930
:10579C0073EEFAEFFB1208A8851682851783740145
:1057AC0012594E850A82850B83E0FA7B00EE24DDCC
:1057BC0012593B7007790012067480077C0179003E
:1057CC0012066EEE24DD125514EE24E11254F3E4AD
:1057DC00125946F0851082851183809AEEFAEFFB00
:1057EC001208780256B1850882850983E06401703D
:1057FC0015850E82850F83E064017056EEFAEFFB7F
:10580C001208A8025647EEFAEFFB12087EE9640173
:10581C0060030256B9850E82850F83E4F0850C82F5
:10582C00850D83125941025782850882850983E0D0
:10583C006401702B9003C8E06012850C82850D8387
:10584C00E4F08516828517830412594E9003C7E045
:10585C0070AA12598860030256B9792202569EEE3C
:10586C00FAEFFB1208840256B1850882850983E0A1
:10587C00640170129003C8E060D8EE24E212552245
:10588C00125973025808EEFAEFFB12088A0256B14D
:10589C00850882850983E06401705C125938702D8B
:1058AC00EE24EC12593B6003025808EE24F112541A
:1058BC00F3121606EE24EF1254F312160612596167
:1058CC007900120662740412139B0258081259884C
:1058DC0060030256B9EE24F11254F3121606EE24AC
:1058EC00EF1254F3121606125961792212066274E1
:1058FC000412139B025866EE24ED125932FAEFFB98
:10590C001208900256B1EEFAEFFB12089CE9640102
:10591C0060030256B902580812592822F582EF3456
:10592C0000F583740122125928F0EE22EE24EB12BA
:10593C005501640122124F900422F0850E82850FCE
:10594C0083221259557401F022F0EE2468F582EF8F
:10595C003400F58322EE24EE125501FC850A828573
:10596C000B83E0FA7B0022EE242012551A125568A4
:10597C00851282851383E8F0A3E9F022EE2472F8F5
:10598C00EF3400F988828983E024FFF0A3E034FF30
:10599C00F088828983125568E84922C082C0838AC4
:1059AC00828B83A3A3A3A3A3A3A3125564EA240B02
:1059BC00F582EB1255A8C3EA98EB995014E8C39AF8
:1059CC00F8E99BF9C3E894AAE99410501479018082
:1059DC0012EAC398F8EB99F9C3E894ABE994105028
:1059EC00EC7900D083D082020122740E12139B7FBB
:1059FC00040214AE74F01213DC74CC1213858C0AEE
:105A0C008D0B74441213D0E0FE74201213D0AC82B0
:105A1C00AD8375839175825274061212987420129C
:105A2C0013D0AC82AD83120DCAE9F508C3940A40B9
:105A3C0003025B6475F006E9A4F50974261213D011
:105A4C00AC82AD837A0E74202509126589700974B5
:105A5C00321213D0E0FF80027F00900B81E06402D1
:105A6C00700474018001E4F50D780D1215F3EEFD50
:105A7C00EFFCA908AA0AAB0B120E48740112139B77
:105A8C007C147D007900740C1213D0AA82AB8312A3
:105A9C000CB6740C1213D0AC82AD837A107424251E
:105AAC000912658970377C1079FF740C1213D012AF
:105ABC0062B67029741C1213D0AC82AD837A047454
:105ACC00252509F9121004740C1213D0AC82AD8385
:105ADC00EFA2E0E433F9AA0AAB0B12039885188203
:105AEC00851983AC82AD837A0C7470250812658994
:105AFC007055851882851983AA82AB83120DF475B3
:105B0C000800E50875F003A4F8A9F085188285193A
:105B1C0083E58228F8E5831262F2126107EC4D608E
