:020000040000FA
:0600000002011D02281F91
:03002B00022F346D
:03003300022F3366
:03005300022892EE
:03007B00022F1B36
:100083000226D3E5C754F84401F5C77901220000DD
:100093000080FB120086B90003020107E47921788E
:1000A30008B800028004F709D8FCE479297802B87B
:1000B30000028004F709D8FCE4900401781E790952
:1000C3008002F0A3D8FCD9FA781A90014D7A01BACC
:1000D30000028007E493A3F608DAF9900C1EAA82C3
:1000E300AB8390014E788279048015E493A3AC82AC
:1000F300AD838A828B83F0A3AA82AB838C828D83A8
:10010300D8E9D9E77582CF7583FD740312012F7582
:100113008291758300740012012F75D00075812FB1
:10012300751801751904759F00020096C09FF59F0D
:10013300E473D09F22D083D082C09FE493C0E07445
:100143000193C0E0740293F59F2201FF0000B40005
:100153000028002800283075A000A000A000A000FF
:1001630000080008E001F00010001000100010006B
:100173001000100050005000500010001000D00775
:100183000000000000000F000100050030750700AB
:100193001000010081FF0000FFCD06EB06D306FF30
:1001A30002020208025000A0000000E803023283AA
:1001B3000100000983022C83010000730C020C83ED
:1001C3000100003204022C83010000740C020E8330
:1001D3000100004804022C83010000750C02108307
:1001E3000100004A04022C83010000760C021283F2
:1001F3000800004B04022C83010000770C021483D7
:10020300010000780CFF0100FF200232830100008F
:10021300FD82022C83010000DC0C02168300000027
:100223000000021C830300009804A90CA90CA90C6C
:10023300A90CA90CA90CA90CA90CA90CA90CA90C13
:10024300A90CA90C370F4F0F310FFFFF01C8000096
:10025300001E00000030303030303030303030306D
:10026300303030303030300100020202020202022C
:100273000202010D0000001001023283010000F4AC
:1002830082022C830100003C0D022683010000F250
:1002930009022C830100003D0D0224830100006F3D
:1002A30081022C830100003E0D02228301000053D2
:1002B30081022C830100003F0D022083010000C056
:1002C30080022C83010000400D021E83010000D236
:1002D30080022C83010000410D024C83010000AE1B
:1002E30080022C83010000420D023C83010000E4E4
:1002F30080022C83010000430D021A830100006178
:1003030081022C83010000440D0218830100004583
:100313000D01E803053F10FF0001307503020106DC
:1003230000000000000000000000000000000000CA
:10033300000000000000000000000000FFFF0600B6
:10034300800CE80378200053696D706C65070953CE
:10035300696D706C65051240012003020A000201F9
:10036300061AFF4C000215E2C56DB5DFFB48D2B09B
:1003730060D0F5A71096E000010002CDCF53696D60
:10038300706C650000000000000000000000000029
:100393000000071500001315104368617261637450
:1003A3006572697374696320310010436861726117
:1003B3006374657269737469632032001043686102
:1003C30072616374657269737469632033001043E7
:1003D3006861726163746572697374696320340060
:1003E3000A43686172616374657269737469632037
:1003F300350043686172616374657269737469631C
:100403002036000A023283010000FA82022C8301A3
:1004130000006B0E024683000000DE0B021C830308
:100423000000ED0B022A830100006C0E022C8301F5
:1004330000007D0E024883000000F30B021C8303BF
:100443000000F40B022A830100007E0E022C8301BC
:1004530000008F0E024A83000000FA0B021C830384
:100463000000FF0B022A83010000900E022C83017F
:100473000000A10E024083000000050C021C830350
:100483000000060C022A83010000A20E022C830145
:100493000000B30E023A830300000C0C022A83010E
:1004A3000000B40E022C83010000D60E0238830331
:1004B30000000D0C022A83010000C50EC503423F54
:1004C3001A51123FF304B53F0000803E120138C7B2
:1004D300EB03120138DEEB031201380DEC031201BA
:1004E3003846EC031201386EEC031201389CEC031E
:1004F300120138B3EC03120138CAEC03120138E0DD
:10050300EC0312013807ED031201381AED0312014F
:100513003830ED0312013843ED0312013868ED035F
:10052300120138ABF402120138AAF502120138DFC6
:10053300F50212013800F60212013810F602120118
:100543003831F6021201383DF7021201380AF80277
:100553001201387DF80212013803F90212013846FC
:10056300F9021201387DF90212013803FA0212016D
:1005730038D5FA0212013833FB021201384BFB0261
:10058300120138C5FB02120138C8FB02120138CB35
:10059300FB0212013872FC021201388AFC021201BA
:1005A30038BAFC02120138DAFC02120138C8FD0223
:1005B3001201387EFE0212013866BB031201388E27
:1005C300BB03120138BCBB03120138F3BB03120196
:1005D300385BBC03120138A4BC03120138EFBC031F
:1005E3001201382DBD031201386ABD031201389878
:1005F300BD031201383FBE0312013849BE03120185
:100603003856BE0312013889BE031201384BBF03AB
:1006130012013857BF031201386FBF031201387933
:10062300BF03120138CCF803120138DAF8031201C0
:1006330038F2F8031201380AF90312013876EC0193
:1006430012013814ED011201388CED01120138A1A9
:10065300EE01120138DBEE0112013884EF011201C1
:100663003859F001120138BDF10112013814F201B9
:100673001201389BF20112013882F301120138CFC3
:10068300F3011201385DF40112013881F401120102
:100693003856F60112013897F601120138B9F601FE
:1006A3001201383AF70112013824F801120138EA2D
:1006B300F801120138109803120138E2980312016D
:1006C300388B9903120138CE99031201385B9A03D0
:1006D300120138E79A03120138C89B03120138F755
:1006E3009B03120138F39C031201383B9D03120153
:1006F300383D9E03120138819E03120138A79E03E1
:1007030012013806FB03120138E8D003120138FE48
:10071300D00312013824D1031201384CD203120141
:100723003856D203120138AFD303120138AFD403C2
:1007330012013896B103120138CBB203120138FE0D
:10074300B20312013848B30312013806B50312018C
:100753003819DD011201387CDD01120138C1DE01D7
:10076300120138D1DE01120138F4DE011201383FE3
:10077300DF01120138E4DF01120138DAE00112016E
:1007830038A4E1011201381CE3011201385EE301D0
:10079300120138FCE30112013849E4011201386FF8
:1007A300E4011201385DE60112013862E60112012B
:1007B3003843E80112013897E801120138F9E801DA
:1007C30012013821E901120138C5E9011201388704
:1007D300EA01120138B8EA01120138BBEA01120139
:1007E3003803EB0112013845EB01120138ACEB0180
:1007F30012013893E303120138A6E303120138BF51
:10080300E3031201380AE403120138E5E403120199
:100813003874E503120138BFE5031201385283012E
:100823001201388B8301120138D0830112013887FA
:1008330084011201380D85011201387285011201FC
:10084300389E8501120138D78501120138EB8701E3
:10085300120138C78901120138B28B01120138E93C
:100863008C01120138498F011201383590011201B0
:10087300387B9101120138889201120138A5920147
:10088300120138DD9201120138F792011201385F2B
:100893009301120138F997011201389A9801120154
:1008A30038EB98011201381299011201386099014D
:1008B3001201387E9901120138D29901120138AB25
:1008C3009A01120138329C01120138BA9C011201BB
:1008D30038BCB603120138C6B60312013891B70308
:1008E300120138ACB703120138D2B703120138161C
:1008F300B8031201384EB80312013877B803120156
:1009030038F0B80312013805B9031201381AB903D4
:1009130012013851B90312013865B903120138962F
:10092300B903120138D0B903120138FCB90312011B
:100933003852BA03120138A6BA03120138EFBA03C8
:1009430012013819BB031201383EBB03120138FCF4
:10095300CC03120138C6CD03120138A9CE0312010C
:10096300381FCF0312013861CF031201388ED00331
:100973001201384CC60212013875C6021201388EB4
:10098300C602120138D3C702120138B1C8021201DC
:1009930038D0C8021201385DC902120138A0C90259
:1009A300120138EDCA021201388CCB021201380B46
:1009B300CE02120138A2CE0212013876CF02120102
:1009C3003858D002120138C4D10212013857D2026A
:1009D300120138D1F5031201383AF6031201388EA9
:1009E300F603120138B5F6031201380EC0031201E3
:1009F300387BC003120138C6C003120138BBC103E0
:100A0300120138B7C203120138A1C303120138859A
:100A13008803120138C78803120138A18903120120
:100A2300387A8A03120138758B03120138548C0308
:100A3300120138C08C03120138878D03120138F27A
:100A43008D03120138598E03120138848E0312016B
:100A530038F58E03120138888F03120138F18F03A2
:100A63001201380690031201384E900312013867C1
:100A73009003120138CC9003120138CF9003120176
:100A8300386CDB0312013894DB03120138D2DB0329
:100A930012013890DC03120138FBDC031201381712
:100AA300DD031201383FDD031201386FDD0312014C
:100AB300387EDD03120138F8DD031201381EDE0330
:100AC300120138BD9C021201389A9E021201389518
:100AD300A00212013868A102120138B3A102120167
:100AE30038FEA10212013810A20212013850A202EC
:100AF30012013885A202120138D1A2021201380074
:100B0300A30212013823A30212013870A3021201B7
:100B130038F9A30212013806A602120138F1A7021E
:100B230012013834A80212013899A902120138DAE5
:100B3300A9021201384DAA0212013899AA02120120
:100B430038C4AA02120138CED202120138F9D202F5
:100B5300120138E0D90212013804DC02120138BF55
:100B6300DD021201381CDF02120138219D0112013E
:100B730038B89D01120138E59D011201382B9E0101
:100B83001201386A9F0112013801A1011201387B59
:100B9300A10112013896A1011201380BA201120121
:100BA300383AA30112013895A40112013897A5011F
:100BB300120138F4A6011201380DA7011201386A97
:100BC300A7011201384CA8011201387FA8011201B4
:100BD30038EFA80112013869A901120138B8A90137
:100BE30012013884AA0112013889AB011201386855
:100BF300AC01120138F3AC0112013861AD011201ED
:100C030038D5AD01120138FEAD01120138BDAE0178
:100C130012013837B00112013854B0011201387390
:100C2300B00112013804B10112013829B1011201D6
:100C33003851B101120138CCB10112013826B20189
:100C43001201387AB30112013837B4011201380A9C
:100C5300B501120138EEAA021201383EAB021201AD
:100C6300384AAB0212013827AC0212013857AC02E2
:100C73001201388FAC021201380EAD021201384650
:100C8300AD0212013898AD02120138D5AD0212013E
:100C930038FAAF0212013826B20212013821B40227
:100CA300120138FCB502120138F57F001201380732
:100CB3006C00120138516C001201383072001201BD
:100CC30038B17300120138107A001201380B7B001F
:100CD300120138487B001201386B7B00120138ADDA
:100CE3007B00120138B67B00120138C07B00120171
:100CF30038AC7C00120138A07D0012013838B501F0
:100D0300120138B0BF01120138B6BF01120138C257
:100D1300C601120138B9D4031201384FD5031201A9
:100D23003865D503120138DFD50312013835D603F0
:100D330012013873D603120138D0D6031201384D8D
:100D4300D70312013856D70312013862D7031201B1
:100D53003875D703120138B1D703120138C7D70347
:100D630012013826D803120138B0C803120138BD66
:100D7300C803120138D7C80312013816C903120178
:100D83003854C903120138B9C903120138CEC90353
:100D9300120138D9C903120138E6C903120138FD1B
:100DA300C9031201380BCA0312013816CA03120110
:100DB3003822CA0312013831CA031201383CCA036C
:100DC3001201385FCA0312013808CB031201381825
:100DD300CB0312013832CB031201384FCB0312017C
:100DE300386BCB0312013890CB031201389ACB0333
:100DF300120138AECB03120138CDCB031201382ECA
:100E0300CC0312013834CC031201383ACC0312015B
:100E13003840CC031201384CCC031201387FCC0389
:100E2300120138C2B80212013844B902120138ED76
:100E3300B90212013835BB0212013843BD02120157
:100E43003829BE021201385EBE0212013880BE028A
:100E530012013829BF02120138F9C00212013822E7
:100E6300C1021201389AC102120138CCC102120127
:100E730038D9C10212013824C20212013848C20211
:100E830012013899C402120138A3C502120138FFB6
:100E9300C5021201380080021201381181021201C9
:100EA30038F58102120138FF8102120138218202D2
:100EB3001201382D8202120138D18302120138FE49
:100EC3008302120138148502120138698502120166
:100ED30038B886021201388D8702120138E9870279
:100EE300120138548802120138898802120138CC61
:100EF3008802120138968B02120138AE8B0212015E
:100F0300383F8C021201384D8C021201389A8C0240
:100F1300120138A88C02120138148D021201388F85
:100F23008D02120138E68D021201383FDF021201F1
:100F33003861DF0212013872E10212013831E40232
:100F43001201385BE50212013819E6021201380575
:100F5300E7021201380EEA0312013833EA031201E1
:100F630038A9EA03120138F39003120138FC900305
:100F7300120138059103120138DD91031201388EF5
:100F83009303120138BE9303120138E9930312014C
:100F930038199403120138449403120138789403E6
:100FA300120138A49403120138E794031201381292
:100FB3009503120138599503120138AE95031201B6
:100FC30038F095031201384A9603120138759603D7
:100FD300120138C49603120138F496031201381F24
:100FE30097031201384D97031201387097031201CA
:100FF3003816FC0312013842FC031201386FFC035C
:1010030012013879FC0312013889FC031201389369
:10101300FC031201389AFC03120138A1FC031201EC
:1010230038A8FC0312013806FD0312013837FD030B
:1010330012013848FD0312013800A603120138A536
:10104300A70312013821A90312013884A90312014D
:1010530038D6A9031201380FAA0312013821AA03B3
:1010630012013867AB031201381C9F031201382A9F
:101073009F03120138709F03120138BF9F031201AF
:101083003807A00312013861A00312013887A003B7
:1010930012013895A003120138F3A0031201382678
:1010A300A10312013838A103120138C3A1031201AD
:1010B300385AA203120138D5A2031201380CA30334
:1010C30012013895A303120138EAA303120138452C
:1010D300A40312013857A4031201387DA40312019B
:1010E3003886A403120138C9A50312013892F30309
:1010F3001201385EF403120138E9E5031201382EB8
:10110300E6031201386CE603120138EBE703120120
:1011130038A3F903120138BEF903120138CEF903DB
:1011230012013825FA0312013863FA03120138F564
:10113300AB031201380CAC03120138FAAC031201F1
:101143003843AD0312013863AD03120138A7AD0371
:1011530012013800AE031201383CAE03120138808D
:10116300AE0312013824B10312013885B103120111
:1011730038E9FE0212013819FF0212013849FF0251
:1011830012013899FF02120138B4FE03120138C567
:10119300FE031201382EE803120138F0E8031201AE
:1011A300381AE90312013856FE03120138B87F00DA
:1011B3001201385C2F00120138A2300012013813DB
:1011C3003100120138F0310012013863320012018C
:1011D30038E032001201380933001201382C330091
:1011E300120138A33300120138C23700120138D676
:1011F3003700120138E837001201387E3800120137
:1012030038D63900120138263A00120138613A0003
:101213001201383C3B001201383A3D001201386F8D
:1012230042001201388D4200120138DD42001201E2
:1012330038F44200120138144300120138514300BC
:10124300120138594300120138C7440012013843D0
:1012530045001201382746001201384746001201A3
:1012630038724D00120138754D0012013863C40302
:1012730012013888C403120138B7C4031201388F2E
:10128300FB031201385F510012013895530012011C
:1012930038455500120138F05500120138815600C7
:1012A3001201381157001201385F5C001201380A2D
:1012B3005D001201386D5E00120138D15E0012012B
:1012C30038855F001201380561001201384461005E
:1012D300120138B861001201381762001201387622
:1012E3006200120138E56200120138D8630012016E
:1012F300381E6400120138636400120138846400EC
:10130300120138DA6500120138ED65001201385D0B
:101313006600120138856600120138AE66001201BC
:1013230038F466001201381267001201385667005C
:10133300120138A86900120138E1690012013888E6
:101343006A00120138F36A00120138EAF703120146
:1013530038FBF70312013899FE03120138E6F6034E
:10136300120138F6F6031201380AF703120138E4C2
:10137300F70312013866DE0312013802DF0312019C
:101383003812E103120138B6F403120138C8F4032A
:101393001201381DF50312013872F50312013815D5
:1013A300EF0312013864EF0312013894EF031201C3
:1013B300382DF003120138F27F001201381FFB01B0
:1013C30012013847FB01120138D8FB01120138DF43
:1013D300FC01120138CDFE011201383DFF0112015B
:1013E30038B0FF01120138F87F001201382DE103F4
:1013F300120138DDE20312013849E3031201389088
:10140300E303120138EB7F00120138CEFF01120112
:1014130038DEFF011201387AED03120138D1ED03F2
:1014230012013859EE03120138C0EE031201385687
:10143300D80312013888D80312013884D903120162
:1014430038A5DA031201385DEA021201384FEB02C4
:1014530012013892EB02120138CCEB021201383F31
:10146300EC021201389EEC021201381BED0212014C
:1014730038F7ED0212013802EF0212013883EF024E
:1014830012013823F102120138B7F1021201382692
:10149300F2021201389EF202120138B5F202120171
:1014A30038F0F30212013842F4021201387DCB0105
:1014B300120138DACF0112013892D201120138B881
:1014C300D201120138DFD20112013887D301120190
:1014D3003852D5011201385FD601120138DFDA0123
:1014E30012013818DB011201385CDB011201386A82
:1014F300DC011201387E8E02120138EE94021201D1
:1015030038239602120138269602120138069702F2
:10151300120138369802120138229902120138BD9D
:1015230099021201385B9A02120138F99A021201E8
:10153300380080031201384D80031201386A80039A
:101543001201386F82031201386F83031201386668
:1015530085031201384888031201383FF203120150
:101563003865F20312013873F20312013876F2037D
:10157300120138B8F20312013802F30312013830B2
:10158300F30312013842F30312013854F303120137
:101593003864F30312013874F3031201386EFD0348
:1015A30012013829FE03120138AFF0031201387B10
:1015B300FE03A2E792D65002F40430F70663F0FF6D
:1015C30005F0B3400384800384F40430D60563F04C
:1015D300FF05F022E066701008A3E066700A08A316
:1015E300E066700408A3E06622C3E7960809E7965D
:1015F3000809E7960809E79622C3E09608A3E09650
:1016030008A3E09608A3E09622C008C3E096F50875
:1016130008A3E096420808A3E096420808A3E096D0
:1016230045087001D3D00822080808E630E71112F4
:101633001E99121643080808C64480C618181822B3
:10164300181818E9799EC608CAC608CBC608CCC6BE
:10165300C370207996CACBCC7019798ECBCC70131A
:101663007986CC700EF9802ACA33CACB33CBCC33FC
:10167300CC331930E7F2CCCBCA3350147004EA30C0
:10168300E00DE4CA3ACACB3BCBCC3CCC500209C3F5
:10169300E913C6CC182313C6CB18C6CA18C6F92239
:1016A3001216BA30F0051216FF8000C6CC18C6CB4E
:1016B30018C6CA18C6F922E4C9C608CAC608CBC6E2
:1016C300D3330308CCC63392F0C3947F402E9418CF
:1016D3004019C9B90704CACBCC225025C309CA3360
:1016E300CACB33CBCC33CC33D9F422F4600DC9CC81
:1016F300C313CB13CBCA13CAD9F6CC22E4FCFBFA2F
:101703002214FCFBFA22E6C3331846184618462275
:10171300E7C33319471947194722181818E608462B
:1017230008700AE608C3337005E633F42208221969
:101733001919E7094709700AE709C3337005E73345
:10174300F4220922E6084608C3134608336002E67A
:1017530033F422E7094709C3134709336002E73328
:10176300F4221217476025121756602012170970CA
:1017730003021713080808E76670101819E7667064
:101783000A1819E76670041819E76622F42212177B
:1017930047601C12175660171217097007121713A8
:1017A3007001D322C0D01217137006D0D0B322C356
:1017B3002233D0D0501430E0F6C3E7960809E796F9
:1017C3000809E7960809E796B32220E0D5E69708CB
:1017D30009E6970809E6970809E697B3221217471F
:1017E300601B121756601612170970071217136041
:1017F3000CB322C0D01217137005D0D022C32233EA
:10180300D0D0501330E0EBC3E7960809E7960809F8
:10181300E7960809E7962220E0E4E6970809E697A9
:101823000809E6970809E6972200121747604F1246
:1018330017566012E7548066F612171D70111217BF
:1018430013703B090909F4F618F618F618F6221274
:101853001732701512170908080860EAE6447FF684
:1018630018768018E4F618F6221217096016121774
:10187300137012E4F608F608F608E65480F6090930
:101883000918181822EAC0E0EBC0E0ECC0E0EDC094
:10189300E0E687F0A4FBACF008E687F0A42CFCE4B8
:1018A30035F0FA1809E687F0A42C4B60027401CADC
:1018B30035F0FCE433FB09E687F0D2F7A42CCB35F3
:1018C300F0FC1908E687F0A42BCC35F0FBE433FDDC
:1018D3000819E687F0D2E7A42C4ACB35F0CD3400C3
:1018E300FC09E687F0D2E7A42DCC35F0FDE433FA0A
:1018F3000918E687F0D2F7A42CCD35F0CA3400FCE2
:1019030008E687F0D2E7D2F7A42ACC35F07A7E2016
:10191300E70B0ACB33CBCD33CDCC33CC33CB3350E6
:10192300147004ED30E00ED2F1E4CD3DCDCC3CCCCF
:101933003B5005DA05C2F1EB547FC63308E6339218
:10194300F0FBE73309E733C39A502D2B70190C0DC5
:101953004C4D70151806E608C333700D20F10AA22A
:10196300F013F6E418800B4024E4F630F00276809E
:1019730018F618F618F68024D33B14501074FFA2FF
:10198300F013F6187680E418F618F6800FA2F01319
:10199300F618E63303F618ECF618EDF6D0E0FDD0B2
:1019A300E0FCD0E0FBD0E0FA22121747601D1217CB
:1019B300567005191919801A12171D701F12173244
:1019C300C37003E66733191919400718181822085A
:1019D300080874FFF618F618F618F6221217326084
:1019E30017121713702192F012170970195017204C
:1019F300F014080808090909E7F61819E7F6181991
:101A0300E7F61819E7F62212170960E6E869701F6E
:101A13000808E62480F608E436F618547FB47F0CF1
:101A2300E654806007F6E418F618F622181822E93F
:101A3300C6CC08C6CD08C6CE08C6CFC0E0E8C0E015
:101A4300EAC0E0EBC0E009E9F809E7FA09E7FBE6D9
:101A5300F918E6F8C3EC98ED99EE9AEBC2E7F5F0C6
:101A6300EFC2E795F0500E600CEBCFFBEACEFAE93C
:101A7300CDF9E8CCF8EAA2E7D2E7FAEB33FB13F5AA
:101A8300F0EEA2E7D2E7FEEF33FFC5F013A2E73093
:101A9300E601B313C5F0C3C0E0C0F07F00C39BFBF6
:101AA300605B9418600C401AD0E023F9D0E0F80290
:101AB3001B8A8AF0E9486003D2F0E4AFF0FAF9F840
:101AC300803BEB30E40D89F0EA6003D2F0E4AFF041
:101AD300F9CAF8EB30E30D88F0EF6002D2F0AFF013
:101AE300E4CAC9F8EB54076014FBC3EA13FAE91319
:101AF300F9E813F8EF135002D2E0FFDBEDD0E0C0BA
:101B0300E030E739C3E49FFFF5F0EC98FC42F0EDD9
:101B130099FD42F0EE9AFE42F0D0E0F9D0E0F8E50C
:101B2300F0607AE923F9EE20E742D8028067C3EF39
:101B330033FFEC33FCED33FDEE33FE80EAEC28FC9F
:101B4300ED39FDEE3AFED0E023F9D0E0F840028013
:101B53001BC3EE13FEED13FDEC13FCEF135002D287
:101B6300E0FF08B800067F7F74FF802EEF33501725
:101B73008CF020F00260100CBC000C0DBD00080EB0
:101B8300BE000408E860DFE933E813FFEE2313FE29
:101B93004F4D4C8008E95480FFE4FEFDFCEE33EF2B
:101BA30033F47004FCFD7E80D0E0FBD0E0FAD0E09B
:101BB300F8D0E0CFC618CEC618CDC618CCC6F922C9
:101BC300121747700418181822121756700D74FF55
:101BD300F61819F61819F61819F622E7548066F65E
:101BE300121709700F12171370F014F608F608F69F
:101BF30008F680D1121713700CF608F608768008E1
:101C0300E6447F80EC121735700C12172060BFE694
:101C13005480F6E480BB121720700519191980A5AA
:101C2300E869700C763F18768018F618F6E8F92202
:101C3300E6CDC0E018ECC0E0E633CD33CDD313F6E8
:101C4300E719FCE7191933CC33C3947F400ECD9DBC
:101C5300502408E65480F6E418F6800FF4043D148B
:101C6300501408E6447FF6187680E418F618F6D088
:101C7300E0FCD0E0FD22CCD313CCFD18E4C6CBC0EE
:101C8300E018E4C6CAC0E00808ED08C633E613F658
:101C930018E433C675F003C3CA97CA09CB97CB19A7
:101CA3009C40047D08802EBD0003021D6C16B6FF08
:101CB300050606081618C3CA33CACB33CB33CA2763
:101CC300CA09CB37CB193CC37D08803E187D082059
:101CD300E75CC633C6CA33CACB33CB33DDF1D5F0A9
:101CE300EB30E77BCA97CA09CB974ACB199C406F65
:101CF3004B7025E620E0218066187D08C3CA97CA89
:101D030009CB97CB199CD3C633C6CA33CACB33CBC3
:101D13003350C9DDE7D5F0E1D3E4C636C608C6368D
:101D2300C608C636C608C636C61818188031C3CAD0
:101D330097CA09CB97CB199CB34097C633C6CA330E
:101D4300CACB33CB33DD34D5F02EC6A2E0C640C8B0
:101D5300CA27CA09CB37194A70BECB3CB480B9082D
:101D630008E63308E633601F181818D0E0FAD0E00D
:101D7300FBD0E0FCD0E0FD22187D08CA27CA09CBBE
:101D830037CB193CD3808013F618E4B67F11F618CD
:101D9300B6FF0EF618C60470D20808768080CAF61D
:101DA30018F618F680C5080808EAC0E0EBC0E0861C
:101DB300F0E7A4FA180986F0E7A42AFA180986F0CE
:101DC300E7A42AFA180986F0E7A42AFA1986F0E7A5
:101DD300A4FBE5F02AFA190886F0E7A42BFBE5F04B
:101DE3003AFA190886F0E7A42BFBE5F03AFA18183B
:101DF3000986F0E7A4C5F02BFBE43AFA1908E7C516
:101E0300F0C6A426F6E5F03BFBE43AFA1886F0E7C1
:101E1300A4F6E5F00826F6E43B08F6E43A08F6D023
:101E2300E0FBD0E0FA22E4CFC0E0E4CEC0E0E4CDB2
:101E3300C0E0E4CCC0E075F020C3E633F608E63337
:101E4300F608E633F608E633F6181818EC33FCED1B
:101E530033FDEE33FEEF33FFC3EC9709ED9709EE45
:101E63009709EF97191919400FFFEC97FC09ED97A4
:101E7300FD09EE97FE191906D5F0BEECF709EDF74B
:101E830009EEF709EFF7191919D0E0FCD0E0FDD0FE
:101E9300E0FED0E0FF22181818E4C396F608E49693
:101EA300F608E496F608E496F6226016080808C6D3
:101EB300C313C618C613C618C613C618C613C6D589
:101EC300E0EA227009080808226016181818C6C329
:101ED30033C608C633C608C633C608C633C6D5E0FC
:101EE300EA22E627F60809E637F60809E637F60890
:101EF30009E637F622E026F608A3E036F608A3E063
:101F030036F608A3E036F622E026F008A3E036F022
:101F130008A3E036F008A3E036F022C3E697F608FC
:101F230009E697F60809E697F60809E697F622C345
:101F3300E0C696F608A3E0C696F608A3E0C696F6B2
:101F430008A3E0C696F622C3E096F008A3E096F055
:101F530008A3E096F008A3E096F022E056F608A363
:101F6300E056F608A3E056F608A3E056F622E0563C
:101F7300F008A3E056F008A3E056F008A3E056F0FB
:101F830022E0F608A3E0F608A3E0F608A3E0F622B1
:101F9300E6F008A3E6F008A3E6F008A3E6F022E0E3
:101FA300FAA3E0FBA3E0FCA3E0FD22EAF0A3EBF03D
:101FB300A3ECF0A3EDF022CAC0E0E6F0A308DAFA3E
:101FC300D0E0FA22CAC0E0E0A3C582CCC582C583B3
:101FD300CDC583F0A3C582CCC582C583CDC583DAC5
:101FE300E6D0E0CA22C3E498F8E499F912202980E4
:101FF30026C3E49AFAE49BFBE920E7E9122029E4EB
:1020030098F8E499F922C3E498F8E499F91220299D
:10201300E498F8E499F9C3E49AFAE49BFB22EB20F1
:10202300E7CFE920E7E0B90010BB0008E88AF084B5
:10203300F8AAF022E4FBC8FA22EB70227B10C83323
:10204300C8C933C9335007C39AC3DBF280069A5019
:10205300012ADBEAC833F4C8C933F4C9FA2275F09C
:1020630008E4C833C8C933C933C99AC99B5004C9E2
:102073002AC93BD5F0ECFBC833F4C8E4C9FA2260A3
:102083000D08C6A2E713C618C613C6D5E0F322602F
:102093000C08C6C313C618C613C6D5E0F4227004D1
:1020A30022600D18C6C333C608C633C6D5E0F4187C
:1020B30022251810AF08F518400215198008F518E5
:1020C30040021519D2AF22C0D0251810AF08F51859
:1020D300500205198008F51850020519D2AFD0D067
:1020E300222518F58210AF08F5184002151980084B
:1020F300F51840021519D2AF851983222518F582E8
:10210300E43519F58322E4732518C582C0E0E51987
:1021130034FFC583C0E0E518C3958224F810AF08E7
:102123008583198582188008858319858218D2AF23
:10213300CEF0A3E520F0A37808E608F0A3DEFAEFDB
:10214300F0A3E58124FAF8E608F0A3E608F0A3E695
:1021530008F0A30808E608F0A3E608F0A315811524
:1021630081D0E0FED0E0F8158115811581E8C0E04B
:10217300EEC0E0222518C582C0E0E51934FFC5830F
:10218300C0E0E518C3958224F910AF08858319854B
:1021930082188008858319858218D2AFCEF0A3E513
:1021A30020F0A37808E608F0A3DEFAEFF0A3E581B8
:1021B30024FBF8E608F0A3E608F0A30808E608F015
:1021C300A3E608F0A315811581D0E0FED0E0F81551
:1021D300811581E8C0E0EEC0E0228519838518826D
:1021E300E0A3FEE0A3F5207808E0A3F608DFFAE019
:1021F300A3FFE0A3C0E0E0A3C0E0E0A3C0E0E0A34E
:10220300C0E0E0A3C0E010AF088582188583198081
:1022130008858218858319D2AFD083D08202013515
:10222300851983851882E0A3FEE0A3F5207808E0F2
:10223300A3F608DFFAE0A3FFE0A3C0E0E0A3C0E059
:10224300E0A3C0E0E0A3C0E010AF08858218858357
:10225300198008858218858319D2AFD083D0822252
:10226300C0D02518C582C0E0E51934FFC583C0E09E
:10227300E518C3958224F310AF0885831985821866
:102283008008858319858218D2AFC8F0A3E9F0A32B
:10229300EAF0A3EBF0A37908E709F0A3D8FAECF08E
:1022A300A3EDF0A3EEF0A3EFF0A3D0E0F0A3D0E012
:1022B300F0A3D0E0F0A3E520F0A3E5F0F0A322859E
:1022C3001983851882E0C0E0A3E0F9A3E0FAA3E054
:1022D300FBA37808E0F608A3DFFAE0FCA3E0FDA384
:1022E300E0FEA3E0FFA3E0C0E0A3E0C0E0A3E0F5CD
:1022F300D0A3E0F520A3E0A3F5F010AF0885831980
:102303008582188008858319858218D2AFD082D040
:1023130083D0E0F8D0E03274048006740280027443
:1023230001C0E0F4041220E4D0E0121FBA227404C6
:10233300800474028000CCC0E0EDC0E0E518C39CCB
:10234300CCAD1950011D10AF068C188D1980068C69
:10235300188D19D2AF121FC7D0E0FDD0E0FC22D0F8
:1023630083D082E9C0E0E493A3C386F0C5F095F07F
:10237300F908E493A386F0C5F095F0700BE493A3FA
:10238300C3994005E9048002A3E475F002A4258201
:10239300F582E5F03583F583D0E0F9E493A3C0E05B
:1023A300E493C0E022D083D082ECC0E0EDC0E0E44F
:1023B30093A3FCE493A3FDED4C600D1223F4EC24F2
:1023C300FFFCED34FFFD80EFE493A3FCE493A3FD56
:1023D300ED4C600D122433EC24FFFCED34FFFD8043
:1023E300EFD0E0FDD0E0FCE493A3C0E0E493C0E0D1
:1023F30022C0E0C3E49396087401939618400FE457
:102403009366700808740193661870007019A3A38B
:10241300C3E49396087401939618A3A3400DD0E0E8
:10242300D0E0D0E00223E4A3A3A3A3A3A3D0E0229C
:10243300C0E0C0F088F0E493667008087401936606
:10244300187000A8F0A3A3700BD0F0D0E0D0E0D0B8
:0B245300E00223E4A3A3D0F0D0E022BD
:1024600074F5122177EAFEEBFFEE2434F8EF340026
:10247000F988088909EE2435F582EF3400F583E008
:10248000F8EE2437F582EF3400F583E0F50AEC85A9
:102490000AF0A4FCAAF0850AF0EDA42AFDE82CF8C5
:1024A000E43DF97A257B00122029EA850882850916
:1024B00083F05407F87401B800028004C333D8FCD9
:1024C000C0E0E0131313541FF8EE28F8EF3400F9BE
:1024D000E8245DF582E93400F583D0E0F8E0586047
:1024E00008EE2434F582EF801EEE2436F582EF34B8
:1024F00000F583E0F5F0EA84A8F0EE28F8EF340068
:10250000F9E82438F582E93400F583E0F97F040224
:10251000222374F5122177EAFEEBFFEE2434F582D4
:10252000EF3400F583E0C0E0EE2435F582EF3400AF
:10253000F583D0E0F08E828F83A3A3A3A3A3A3A3EC
:10254000C082C0838E828F83A3A3A3A3A3E0F8A33A
:10255000E0F9D083D082E0C398F508A3E099F509AB
:10256000EE2480F582EF3400F583E064017069EEBB
:102570002481F582EF3400F583E0F8A3E0F98E8240
:102580008F83A3A3A3A3A3A3A3E0FCA3E0FD8E8258
:102590008F83A3A3A3A3A3E0FAA3E0FBC3EA9CEB6E
:1025A0009D5027C3EC98ED99402EC3EA98EB9950C3
:1025B000277C7D7D06EEFAEFFB120C07EE2480F5FA
:1025C00082EF3400F583E4F0800EC3EA98EB994083
:1025D000E0C3EC98ED9950D9EE2434F8EF3400F9CB
:1025E000E8FCE9FDEE2435F582EF3400F583E0F8F0
:1025F000EE2437F582EF3400F583E0F50AE508852F
:102600000AF0A4F508AAF0850AF0E509A42AF5095C
:10261000E82508F8E43509F97A257B00122029EA33
:102620008C828D83F05407F87401B800028004C3D3
:1026300033D8FCC0E0E0131313541FF8EE28F8EF72
:102640003400F9E8245DF582E93400F583D0E0F840
:10265000E0586008EE2434F582EF801EEE2436F553
:1026600082EF3400F583E0F5F0EA84A8F0EE28F874
:10267000EF3400F9E82438F582E93400F583E0F915
:10268000122F0D02250DC082C08385188285198303
:10269000E0F8A3E0F9C3EA9CEB9D5012C3EC98ED7F
:1026A000994019C3EA98EB99501279018010C3EA56
:1026B00098EB9940F5C3EC98ED9950EE7900D083F2
:1026C000D08222EAC39CFAEB9DFB220085218785FC
:1026D00022C622C0E0C0D0E8C0E0E9C0E0EAC0E025
:1026E000EBC0E0ECC0E0EDC0E0C008C009C00AC02B
:1026F0000BC082C083C0F0759B00906182E0A2E6AF
:1027000040030227B1E591A2E640030227B175918B
:10271000BF900542E064057008120D3F120D4B801A
:1027200003120D45752100120DA5E9900543F079BE
:1027300000120D99120B7D7A017B00900541E0F9A2
:102740001210C3907803E0644260030227FA9006F7
:10275000DFE014F060030227FAC2AF12275E0078B0
:102760002AD0E0F618D0E0F6E59F5407F9700590FE
:1027700082D480039082D07808121F84E9C4C0E01C
:102780007829E65508F50808E65509F509740B7827
:1027900008122092D0E02508F8906270E0A2E7408D
:1027A000F8E8C333906272F0906270E0D2E0F0809B
:1027B00049E0A2E55024E591A2E5501E7591DF9015
:1027C0000542E0640D7013900564E004F064287025
:1027D00002E4F07A00E0F9120E17906181E0A2E3C2
:1027E0005009E5E9A2E3500375E9F7A3E0A2E75039
:1027F00009E591A2E7500375917FD0F0D083D08294
:10280000D00BD00AD009D008D0E0FDD0E0FCD0E059
:10281000FBD0E0FAD0E0F9D0E0F8D0D0D0E032C080
:10282000E0C0D0C082C083906183E0A2E05009E59F
:10283000BFA2E0500375BFFEE0A2E15009E5BFA2D0
:10284000E1500375BFFDE0A2E25009E5BFA2E250EE
:102850000375BFFBE0A2E35009E5BFA2E350037597
:10286000BFF7E0A2E45009E5BFA2E4500375BFEF53
:10287000E0A2E55009E5BFA2E5500375BFDFE0A285
:10288000E65009E5BFA2E6500375BFBFD083D082F2
:102890008088C0E0C0D0E8C0E0E9C0E0EAC0E0EB7A
:1028A000C0E0ECC0E0EDC0E0C0F0E5A7A2E6500F4C
:1028B000E5A1A2E6500953A7BF75A1BF1228F7E50D
:1028C000A7A2E5500CE5A1A2E5500653A7DF75A12C
:1028D000DFE5A7A2E15009E5A1A2E1500375A1FD42
:1028E000E5A7A2E2500CE5A1A2E2500653A7FB75B2
:1028F000A1FBD0F002280874F8122177752101900D
:102900000542E064067015120CD38A828B83A3A360
:10291000A3A3A3A3E0FAA3E0FB120D2DA2AFE4331F
:10292000FED2AF900548E0640170187A207B0090D9
:102930000541E0F91211537A207B00900541E0F93E
:102940001210C9906182E0D2E6F09006DEE06021CC
:1029500085C6228016900547E064017008E5C654DC
:10296000F84405F5C653BEFC1226CC7401652160FF
:10297000E4EEA2E092AF7F01022223008E238F2497
:10298000858228858327851882851983E0CEA3E078
:10299000CF852882852783EBC9EAC8EDCBECCA75C1
:1029A000F010C3E833C8E933C9EA33CAEB33CBC309
:1029B000EA9EF526EB9FF525B35004AB25AA26EC3D
:1029C00033CCED33CDD5F0DAAE23AF242274EB1245
:1029D000217774FA1220B48A088B098C148D159013
:1029E0000542E024F7C394055006908240022B2F45
:1029F000120CD38A0A8B0BAE0AAF0BEE4F70030298
:102A00002B2CAC08AD09851882851983AA82AB836B
:102A1000120D5D8E828F83A3A37808121F8490828B
:102A2000E87808121F5E851882851983780C121FBA
:102A3000849082E8780C121F5E7808790C1215ECED
:102A4000501F7808790C121F1E9081E47808121626
:102A50000C4047850810850911850A12850B1380E3
:102A600041850C10850D11850E12850F1378107994
:102A700008121F1E9081E4781012160C501C75105D
:102A8000007511007512007513017810790C121F72
:102A90001E78107908121EE5800890824078101286
:102AA0001F8474097810121EC69081E07808121FE6
:102AB0008478107908121E298E828F83A3A3A3A382
:102AC000A3A3E0F8A3E0F97AD07B031220298808B9
:102AD0008909E4F50AF50B78107908121EE57404EB
:102AE0001220FFE0F8A3E0F97AD07B03122029E856
:102AF000FA8A08E4F509781079081215EC5007787D
:102B0000107908121F1E900542E06408600AE06414
:102B1000066005E06405701C9081D8781012160CD0
:102B200050129081D47810121EF8800890823C7860
:102B300010121F848514828515837810121F9374D8
:102B4000061220CA7F0E02222374F7122177120D7B
:102B50006F9006DCE064017010906245E4F0A3F031
:102B600053F4F343FE0C5390F3120D1BE5C654804F
:102B70004449F5C6E59E547F644970F890618574B8
:102B80000FF09006DAE0F47002A3E0604E9006DBEE
:102B9000E0600814601B14602E8040750801750900
:102BA000009006DAE078081220A1E508F45280804F
:102BB0002A7508017509009006DAE078081220A14C
:102BC000E508F4529080147508017509009006DA42
:102BD000E078081220A1E508F452A079007F0202F3
:102BE000222374F7122177E9FEEAFF74016E700C5C
:102BF0007A807B00900541E0F91210C3902F54E4D5
:102C000093F46008E493F9120B71800953C680E5D0
:102C10009E547F70FA120D219006DCE0640170036F
:102C2000120B899006DAE0F47002A3E0604B900684
:102C3000DBE0600814601A14602C803D7508017593
:102C400009009006DAE078081220A1E508428080A9
:102C5000287508017509009006DAE078081220A1AD
:102C6000E508429080137508017509009006DAE0C6
:102C700078081220A1E50842A0120D6F120CD38A29
:102C8000088B09A808A909E8496015E5E170FCE886
:102C90002414F582E93400F583E0F46003E0F5E103
:102CA00074016F700A7A01900541E0F912111D025A
:102CB0002BDD74F11221778A088B098C0A8D0B7435
:102CC0000F1220FF780C121F849082E87808121FE0
:102CD0005E9082E8780C121F5E7808790C1215EC71
:102CE00050157808790C121F1E9081E4780812168E
:102CF0000C401579018013780C7908121F1E908101
:102D0000E4780C12160C40EB79007F080222237441
:102D1000ED1221778A088B098C0A8D0B741312200F
:102D2000FF780C121F849082E87808121F5E908250
:102D3000E8780C121F5E780C79081215EC401178B7
:102D400008790C121F1EAA08AB09AC0AAD0B802231
:102D50007510007511007512007513017810790C4B
:102D6000121F1E78107908121EE5AA10AB11AC12C2
:102D7000AD137F0C0222239082E87808121F848A08
:102D8000828B837808121F717F0402222374F5124C
:102D900021778C828D837808121F848A828B8378B6
:102DA00008121F4AEA2404F8EB3400F98C828D8360
:102DB000A3A3A3A3E0FCA3E0FD88828983C3E09CD6
:102DC000F0A3E09DF088828983C3E09420A3E0947F
:102DD0004E40229081E87808121F848A828B837883
:102DE00008121F0B8A828B83A3A3A3A3E02420F0E5
:102DF000A3E0344EF0808074F5122177E9FE90064E
:102E000094E0FAA3E0FBEEC333F8E433F974F62858
:102E1000F582748039F583E02AF508A3E03BF509D3
:102E2000780812231E9082CC121FA212297C7402F1
:102E30001220CA8A088B098C0A8D0B74107808122C
:102E40001EADAA08AB097F0402222374F112217778
:102E50008A0C8B0D8C0E8D0F740F1220FFE0FAA3DD
:102E6000E0FB74111220FFE0F508A3E0F5097413EC
:102E70001220FFE0FEA3E0FF780812231EEA2401DF
:102E8000F508EB3400F509E4F50AF50B780C790840
:102E9000121DA990825C7808121F84780C790812A0
:102EA0001DA9AA0CAB0DAC0EAD0F12297C74021239
:102EB00020CA8B09EA450960047A0180027A00EC95
:102EC0002AFCED3400FDECF8EDF97A717B0212205A
:102ED0002988088909E4F50AF50B8E828F83780822
:102EE000121F93ECF8EDF97A717B021220298A08FF
:102EF0008B09740578081220A18E828F83A3A3A367
:102F0000A3E508F0A3E509F07F08022223C082C0F0
:102F100083E9906000F0D083D08222C0E074F21286
:102F20002263121243E9538AF7C2EB12102D7F017C
:102F30000222C232C0E0C0D0E8C0E0A2AFE433F861
:102F4000D2AFC2C7751A00A2E092AFD0E0F8D0D0DD
:032F5000D0E0329C
:102F5400FFFFFFFFFFFFFFFF74F312210BEAFEEBFD
:102F6400FF8C088D09740D1220FFE0FAA3E0FBEA40
:102F740024FFFAEB34FFFB78007900023042E8FCCE
:102F8400E9FDEC75F002A4CC85F00A75F000A425E7
:102F94000AF50A75F002EDA4250AFD74B52CF58234
:102FA40074093DF583E0F50AA3E0F50BE8FCE9FDBF
:102FB400EC75F002A4CC85F00C75F000A4250CF59A
:102FC4000C75F002EDA4250CFD74B32CF582740984
:102FD4003DF583E50AF0A3E50BF0E8FCE9FDEC75AB
:102FE400F002A4CC85F00A75F000A4250AF50A7550
:102FF400F002EDA4250AFD74CB2CF58274093DF58D
:1030040083E0F50AA3E0F50BE8FCE9FDEC75F002BA
:10301400A4CC85F00C75F000A4250CF50C75F00219
:10302400EDA4250CFD74C92CF58274093DF583E5E6
:103034000AF0A3E50BF0E82401F8E93400F9C3E849
:103044009AE99B5003022F82EAF8EBF9E875F00243
:10305400A4C8ACF075F000A42CFC75F002E9A42C13
:10306400F974B328F582740939F583EEF0A3EFF00F
:10307400EA75F002A4CAA8F075F000A428F875F067
:1030840002EBA428FB74C92AF58274093BF583E595
:1030940008F0A3E509F01212077F050221DDC082C2
:1030A400C083EBC313FBEA13FAEAF8EBF9E875F013
:1030B40002A4C8ACF075F000A42CFC75F002E9A4DD
:1030C4002CF974B328F582740939F583E0F8A3E088
:1030D400F9900D3AE8F0A3E9F0EA75F002A4CAA861
:1030E400F075F000A428F875F002EBA428FB74B383
:1030F4002AF58274093BF583C3E09465A3E0940048
:103104004004790180027900D083D082020135C065
:1031140082C0837A007B00780079007A9F7B091251
:1031240011A1E9640170F490099FC082C0839009E1
:1031340039E0F8A3E0F9D083D082C3E098A3E09902
:10314400501D900939C082C08390099FE0F8A3E024
:10315400F9D083D082E0C398FAA3E099FB801B9056
:10316400099FC082C083900939E0F8A3E0F9D083B5
:10317400D082E0C398FAA3E099FB9009A1C082C071
:103184008390093BE0F8A3E0F9D083D082C3E098B0
:10319400A3E099501D90093BC082C0839009A1E02F
:1031A400F8A3E0F9D083D082E0C398F8A3E099F9BA
:1031B400801B9009A1C082C08390093BE0F8A3E082
:1031C400F9D083D082E0C398F8A3E099F9C3EA94D4
:1031D40064EB9400500DC3E89464E99400500479BE
:1031E4000180027900D083D08202013574F7122164
:1031F4000B78007900805CE8FCE9FDEC75F002A432
:10320400CCAEF075F000A42EFE75F002EDA42EFDF8
:1032140074B32CF58274093DF5837400F0A3740033
:10322400F0E8FCE9FDEC75F002A4CCAEF075F0001A
:10323400A42EFE75F002EDA42EFD74C92CF5827443
:10324400093DF5837400F0A37400F0E82401F8E963
:103254003400F9C3E89AE99B409D7F010221DD74A3
:10326400F712210B790112118F1211F5E9F8E8C355
:103274009404501C75080178081223227CDC7D0517
:103284007B5A7A0179011211AD74011220CA80426D
:10329400E8C39408501C75080178081223227CDCCA
:1032A4007D057B5A7A0179031211AD74011220CA8B
:1032B4008020E8C3940C501A750801780812232260
:1032C4007CDC7D057B5A7A0179071211AD740112F9
:1032D40020CA790012118F7F010221DDC082C083D0
:1032E4009009427402F0900936E0900943F0900985
:1032F40043E0540FF8900942E0C454F048F9D083F5
:10330400D082020135C082C08390090F7400F0900E
:1033140009107400F0908284121FA2900D24121FD1
:10332400AED083D082020135C082C08390090EE002
:10333400706690090F74C0F09009107401F0900940
:103344001F7400F0908288121FA2900926121FAEEB
:10335400908284121FA2900D24121FAE90091E7435
:1033640001F07A0B7B001211C57A9F7B091211A11F
:10337400E9640170F412120790099FE0F8A3E0F9E0
:10338400900939E8F0A3E9F09009A1E0F8A3E0F985
:1033940090093BE8F0A3E9F0D083D08202013574B0
:1033A400F612210B7E007C067D0079307A537B096E
:1033B40012108774101220FFE06455600302347108
:1033C4007C537D097A0679861214A1E9640A700592
:1033D40079000237BD750806750900780812231EA6
:1033E4007C537D09740C1220FFAA82AB83121081D6
:1033F40074021220CAE9640170047E0180027E0214
:10340400EE900936F0900936E06402700579000206
:1034140037BD750806750900780812231E7C987D4F
:103424008174151220FFAA82AB83121081740212D8
:1034340020CAE9640170061211D70237BB75080669
:10344400750900780812231E7C917D817415122061
:10345400FFAA82AB8312108174021220CAE96401AC
:1034640070061211DD0237BB79000237BD741012E9
:1034740020FFE0644D60030237BB7C537D097A066C
:1034840079801214A1E9640A700579000237BD75C8
:103494000806750900780812231E7C537D09740CF4
:1034A4001220FFAA82AB8312108174021220CAE98F
:1034B400640170047E0380027E04EE900936F0906D
:1034C4000936E06404700579000237BD74111220D6
:1034D400FFE024BF601C1470030235FC1470030267
:1034E400371C14700302375024F370030237890227
:1034F40037BB750806750900780812231E7C987D71
:103504008174151220FFAA82AB83121081740212F7
:1035140020CAE9640170061211D70237BB75080688
:10352400750900780812231E7C917D817415122080
:10353400FFAA82AB8312108174021220CAE96401CB
:1035440070051211DD80D375080175090078081221
:10355400231E7C3E7D8374151220FFAA82AB831246
:10356400108174021220CAE9640160030235F790E5
:10357400093D7401F0790112118F74171220FFE0D4
:10358400F8790024D0F8E934FFF9E875F00AA4C802
:10359400AAF075F000A42AFA75F00AE9A42AF990B1
:1035A400093EE8F0A3E9F074181220FFE0F879006E
:1035B40024D0F8E934FFF990093EE028F0A3E0397B
:1035C400F090093EE0F8A3E0F990093EE0F508A385
:1035D400E0F509E88508F0A4C8AAF08509F0A42A52
:1035E400FA8508F0E9A42AF990093EE8F0A3E9F085
:1035F4000237BB79000237BD74121220FFE0643138
:10360400702274131220FFAC82AD837A067986127D
:10361400149BE9640A700579000237BD790212121D
:10362400550237BB74121220FFE064327021741308
:103634001220FFAC82AD837A06799812149BE96458
:103644000A700579000237BD790312125580D274CD
:10365400121220FFE0643370367C2E7D0D7A0679D9
:10366400801214A1E9640A700579000237BD74134D
:103674001220FFAC82AD837A06798012149BE96430
:103684000A700579000237BD7901121255809274CF
:10369400121220FFE06434704874131220FFAC82CD
:1036A400AD837A06799212149BE9640A7005790055
:1036B4000237BD9009377401F07508067509007862
:1036C4000812231E74151220FFAC82AD837A347B5A
:1036D4000D12106F74021220CA79041212550237A7
:1036E400BB74121220FFE06435702874131220FF9B
:1036F400AC82AD837A0679A012149BE9640A700542
:1037040079000237BD7905121255900BD07400F080
:103714000237BB79000237BD74121220FFE0643116
:103724007028750806750900780812231E7C8A7DA6
:103734008174151220FFAA82AB83121081740212C5
:1037440020CAE96401707012152B806B7412122068
:10375400FFE064317061750806750900780812236A
:103764001E7C8A7D8174151220FFAA82AB831210FD
:103774008174021220CAE96401703CC2AF75C9ABFE
:1037840075C95B80FE74121220FFE0643170281248
:1037940011F5E9900944F0121231E9900945F090CD
:1037A40009467402F0900936E0900947F0790F7ADF
:1037B400447B09121519E979017F020221DDC082D7
:1037C400C0837A017901121351EAF9D083D08202BD
:1037D4000135C082C0837A027900121351D083D09C
:1037E4008202013574F712210B7F007E0075F0020E
:1037F400C0F01211E9E9D0F0A4FFEFC39401C3941F
:103804009550027E01EFC39496C3940550027E0244
:10381400EFC3949BC3940550027E03EFC394A0C3EB
:10382400940550027E04EFC394A5C3940550027E10
:1038340005EFC394AAC3940550027E06EFC394AF68
:10384400C3940550027E07EFC394B4C39405500299
:103854007E08EFC394B9C3940550027E09EFC39464
:10386400BEC3940550027E0AEFC394C3C3943C5074
:10387400027E0BEEF97F010221DDC082C083900934
:10388400A5C082C08390099FE0F8A3E0F9D083D05B
:1038940082C3E098A3E099502590099FC082C08319
:1038A4009009A5E0F8A3E0F9D083D082E0C398F8AA
:1038B400A3E099F99009ABE8F0A3E9F0802390091B
:1038C400A5C082C08390099FE0F8A3E0F9D083D01B
:1038D40082E0C398F8A3E099F99009ABE8F0A3E972
:1038E400F09009A7C082C0839009A1E0F8A3E0F991
:1038F400D083D082C3E098A3E09950259009A1C059
:1039040082C0839009A7E0F8A3E0F9D083D082E0D5
:10391400C398F8A3E099F99009ADE8F0A3E9F08021
:10392400239009A7C082C0839009A1E0F8A3E0F91D
:10393400D083D082E0C398F8A3E099F99009ADE868
:10394400F0A3E9F09009A9C082C0839009A3E0F82C
:10395400A3E0F9D083D082C3E098A3E099502590E6
:1039640009A3C082C0839009A9E0F8A3E0F9D08339
:10397400D082E0C398F8A3E099F99009AFE8F0A3E6
:10398400E9F080239009A9C082C0839009A3E0F8DC
:10399400A3E0F9D083D082E0C398F8A3E099F9902A
:1039A40009AFE8F0A3E9F09009ABE0F8A3E0F990DF
:1039B40009ADE028F8A3E039F99009AFE028F8A3AD
:1039C400E039F99009B1E8F0A3E9F0D083D082029C
:1039D400013574F612210B7A9F7B091211A1E96457
:1039E4000170381211FB75080B7509007808122351
:1039F4001E9009A1E0FCA3E0FD9009B1E0FAA3E068
:103A0400FB1211B374021220CA7A0B7B001211B993
:103A1400E97004790080067903800279007F02024C
:103A240021DDC082C08390099FE0F8A3E0F99009EA
:103A3400A5E8F0A3E9F09009A1E0F8A3E0F9900962
:103A4400A7E8F0A3E9F09009A3E0F8A3E0F990094E
:103A5400A9E8F0A3E9F0D083D08202013574EC1216
:103A6400210B7A9F7B091211A1E990099FE0F508C7
:103A7400A3E0F50990099FE0F50AA3E0F50BE5083A
:103A8400850AF0A4C508A8F0850BF0A428F8850AD7
:103A9400F0E509A428F509E4F50AF50B9009A1E07D
:103AA400F50CA3E0F50D9009A1E0F50EA3E0F50FE8
:103AB400E50C850EF0A4C50CA8F0850FF0A428F839
:103AC400850EF0E50DA428F50DE4F50EF50F90092B
:103AD400A3E0F510A3E0F5119009A3E0F512A3E02B
:103AE400F513E5108512F0A4C510A8F08513F0A411
:103AF40028F88512F0E511A428F511E4F512F51360
:103B04007808790C121EE578087910121EE57808F9
:103B1400121646AA08AB09AC0AAD0B1215A98A08FD
:103B24008B098C0A8D0B78081216A39009987808D3
:103B3400121F937F0C0221DD74F412210B900D24CB
:103B44007808121F84E5084509450A450B6013905F
:103B540081E87808121F84900D247808121F0B0244
:103B64003D3590090EE06480600690090EE07018FF
:103B74009009207400F012101B90828C121FA290E6
:103B84000D24121FAE023D35900921E0640160034B
:103B9400023C7C900D247808121F84E508450945F1
:103BA4000A450B6003023C7C90090EE07003023C62
:103BB4007C1211EF900911EAF0A3EBF0900911C304
:103BC400E09451A3E09400402790090FE064C07092
:103BD4001F12101B9009117400F0A37400F09009D7
:103BE4000F7400F0908284121FA2900D24121FAE55
:103BF400900911C3E09465A3E09400407B90090F01
:103C0400E0707512101B9009117400F0A37400F099
:103C140090090F74C0F0908284121FA2900D241298
:103C24001FAE900913E02401F0900913E090099766
:103C3400F0908290121FA2900916121FAE900913E1
:103C4400E0C3940140179009137403F090090F74B2
:103C540000F079001212559009207401F0900920A7
:103C6400E064017007790112118F800C9082941224
:103C74001FA290091A121FAE900913E0C3940140C9
:103C84006A90091A7808121F84E5084509450A450F
:103C94000B60319081E87808121F8490091A780823
:103CA400121F0B790112118F750801780812232253
:103CB4007CDC7D057B647A6479071211AD74011292
:103CC40020CA8027900920E06401601F7900121146
:103CD4008F75080078081223227CDC7D057B007A2E
:103CE4000179071211AD74011220CA9009167808DF
:103CF400121F84E5084509450A450B60129081E8C6
:103D04007808121F849009167808121F0B802290DD
:103D1400090FE064C0701A90090EE064C07012903C
:103D24008284121FA2900D24121FAE90090F7400FA
:103D3400F07F040221DD74F012210B90090DE06084
:103D44007790091AC082C0839082987808121F84E1
:103D5400D083D08278081215FC50179082407808DE
:103D6400121F8490091A7808121F0B790112118FFF
:103D7400804B90091AC082C08390828C7808121FED
:103D840084D083D08278081215FC50179082407832
:103D940008121F8490091A7808121F0B7900121157
:103DA4008F801A90090DE024FFF090823C121FA22C
:103DB40090091A121FAE8005790012118F90090E16
:103DC400E06480701212101B90828C121FA2900D5E
:103DD40024121FAE02426A9009267808121F84E555
:103DE400084509450A450B7003023F2B9081E8788A
:103DF40008121F849009267808121F0B900926C008
:103E040082C0839082407808121F84D083D0827845
:103E1400081215D7703190091FE06401602912104F
:103E24001B90090F7400F0908284121FA2900D243D
:103E3400121FAE90823C121FA290091A121FAE905C
:103E4400090D7404F08034900926C082C0839082E6
:103E5400407808121F84D083D08278081215D77056
:103E64001A90823C121FA290091A121FAE90090DDB
:103E74007404F01212497900121255900926780838
:103E8400121F84908298780C121F847808790C127F
:103E94001E29E50C450D450E450F600302426A904C
:103EA400090EE064C0701D90091EE0640170159055
:103EB400091E7400F0908284121FA2900D24121F18
:103EC400AE02426A90090EE064C0705890090DE099
:103ED400705290091FE06401604A121201E99009CE
:103EE40032F0900932E0603912101B90090F74C04F
:103EF400F0908284121FA2900D24121FAE90091F0D
:103F04007401F09009337401F090823C121FA29066
:103F1400091A121FAE90090D7402F090091374006F
:103F2400F002426A02426A900D247808121F84E566
:103F3400084509450A450B60109081E87808121F6E
:103F440084900D247808121F0B900921E06401600D
:103F540003024068900D247808121F84E50845097F
:103F6400450A450B60030240681211A7E990090E47
:103F7400F090090EE064C0700302426A1211EF90DF
:103F84000911EAF0A3EBF0900911C3E09451A3E006
:103F94009400402A90090FE064C0702212101B9014
:103FA40009117400F0A37400F090090F7400F090EC
:103FB4008284121FA2900D24121FAE024068900941
:103FC40011C3E09465A3E094005003024068900993
:103FD4000FE0600302406812101B9009117400F096
:103FE400A37400F090090F74C0F0908284121FA291
:103FF400900D24121FAE90091F7401F090093374C0
:1040040001F0900914E02401F0A3E03400F09009D9
:1040140014E0F8A3E0F9900995E8F0A3E9F09082A0
:1040240090121FA2900916121FAE90823C121FA27A
:10403400900922121FAE90823C121FA290091A12FC
:104044001FAE90090D7405F0900914C3E09460A3A9
:10405400E094EA400F9009147460F0A374EAF079D4
:10406400001212559009167808121F84E5084509B4
:10407400450A450B60139081E87808121F84900963
:10408400167808121F0B0241B690090FE064C06055
:104094000302418D90090EE064C0600302418D90DB
:1040A40009167808121F84E5084509450A450B607E
:1040B4000302418D9009267808121F84E5084509FA
:1040C400450A450B600302418D90092A7808121FA6
:1040D40084E5084509450A450B600302418D9009B2
:1040E4002E7808121F84E5084509450A450B60032C
:1040F40002418D900933E06401701F90093374000C
:10410400F07A0B7B001211C57A9F7B091211A1E989
:10411400640170F412120702426A900922780812AC
:104124001F84E5084509450A450B60129081E8782B
:1041340008121F849009227808121F0B80749009BA
:104144000DE0706E90092A7808121F84E50845096D
:10415400450A450B705C12101B908298121FA290A6
:104164000922121FAE121201E9900932F0900932AD
:10417400E06403703D90829C121FA290092E121FCE
:10418400AE90090D7401F0802990090EE07023901F
:10419400090FE0701D908284121FA2900D24121F3B
:1041A400AE90091F7402F09009107400F0790012A7
:1041B400125590092E7808121F84E5084509450A0E
:1041C400450B60109081E87808121F8490092E78BE
:1041D40008121F0B90092EC082C083908240780879
:1041E400121F84D083D08278081215D7702412113C
:1041F400BFE9601E9082A0121FA290092A121FAE6E
:1042040090823C121FA290091A121FAE90090D74DD
:1042140003F090092A7808121F84E5084509450A25
:10422400450B60109081E87808121F8490092A7861
:1042340008121F0B90092AC082C08390824078081C
:10424400121F84D083D08278081215D77018900971
:104254001F7402F0908284121FA2900D24121FAECC
:1042640090090F7400F07F080221DDC082C08390A2
:104274000910E0600514600780081212138003120D
:104284001219D083D08202013574F412210B900DDF
:10429400207808121F84E5084509450A450B601279
:1042A4009081E87808121F84900D207808121F0B63
:1042B40080221211A7E990090EF012121F90090F23
:1042C400E0FB90090EE0FA900D1FE0F9121021E9CD
:1042D400900921F07F040221DDC082C08390090E81
:1042E400E07004790180027900D083D08202013524
:1042F40074F712210B7E0012122BE970027E041255
:10430400122BE9640170027E05EEF97F010221DDC2
:1043140074F712210B7508001211F5E9900940F0A9
:10432400121231E9900941F0900940E064017005EE
:104334007900121255900940E0C454F0F508900930
:1043440041E0540F4208A9087F010221DDA293E451
:1043540033F902013574F612210B74EB1220B412F6
:10436400123DE9640160030244BB7E007F007C1EB1
:104374007D0079007A777B091210877A777B09129E
:104384001051750802750900780812231E7CF77D08
:10439400827A917B0912108174021220CAE96401A5
:1043A400702E75081E750900780812231E7C597D2D
:1043B400097A777B0912108174021220CAE9640118
:1043C400700E9009357400F012126179010244BD37
:1043D40078007900801C747728F582740939F58394
:1043E400E0FA7B00EE2AFEEF3BFFE82401F8E93413
:1043F40000F9C3E89415E99400A2D265D03340D6FD
:1044040090098CE06473600D90098DE0647360051D
:1044140079000244BD750806750900780812231E48
:104424007C777D0974021220FFAA82AB8312106F7D
:1044340074021220CA90097DE0C0E074061220FFC5
:10444400D0E0F090097EE0C0E074071220FFD0E0D5
:10445400F090097FE0C0E074081220FFD0E0F0750E
:104464000806750900780812231E7C807D09740BE8
:104474001220FFAA82AB8312106F74021220CA7535
:104484000806750900780812231E7C867D097411BC
:104494001220FFAA82AB8312106F74021220CA8505
:1044A4001882851983741512233912126774151230
:1044B40020CAE979018002790074151220CA7F02AA
:1044C4000221DDC082C08374FE1220B48518828567
:1044D4001983AC82AD837A0279A61214A1E9640A25
:1044E4006051851882851983E0F87900E4C8F9746D
:1044F400011220FFE0FA7B00E82AF8E93BF9E824FE
:1045040001F8E93400F9E8FAE9FBE4EBFA851882EA
:10451400851983F0E8C0E074011220FFD0E0F08533
:104524001882851983AC82AD837A0279A612149B12
:10453400E9640A74021220CAD083D082020135745D
:10454400F412210BEAFEEBFF7508001211F5E924C1
:10455400FFF508740A650870118E828F837439F030
:104564008E828F83A37439F080118E828F8374308E
:10457400F0743025088E828F83A3F0900995E0F8BB
:10458400A3E0F9E4E9F88E828F83A3A3F090099560
:10459400E0F8A3E0F9E88E828F83A3A3A3F0900947
:1045A40097E024308E828F83A3A3A3A3F09009986D
:1045B4007808121F8474187808121EADE5088E82DC
:1045C4008F83A3A3A3A3A3E508F090099878081206
:1045D4001F8474107808121EADE5088E828F83A3A1
:1045E400A3A3A3A3A3E508F09009987808121F8455
:1045F400E4E509F508E5088E828F83A3A3A3A3A3AA
:10460400A3A3E508F09009987808121F84E5088EA2
:10461400828F83A3A3A3A3A3A3A3A3E508F07F048A
:104624000221DDC082C0839009357401F0E990094C
:1046340034F0900BD17401F0A37400F0D083D082D5
:1046440002013574F612210B7C1E7D0079307A59F3
:104654007B0912108790099C7401F090099D7403E2
:10466400F0A37400F0900934E0602714700302474B
:104674008D14700302488E1470030249871470036A
:10468400024A80147003024B79147003024C7202C4
:104694004D63750802750900780812231E7C007D9D
:1046A400837A597B0912106F74021220CA7CDF7D51
:1046B400097A0679A01214A1E9640A7003024D6D07
:1046C400750806750900780812231E7CDF7D097AB7
:1046D4005B7B0912106F74021220CA7CDF7D097A99
:1046E4000679921214A1E9640A7003024D6D7508EB
:1046F40006750900780812231E7CDF7D097A617B28
:104704000912106F74021220CA7CE57D097A0279BD
:10471400A61214A1E9640A7003024D6D75080275AE
:104724000900780812231E7CE57D097A677B09124B
:10473400106F74021220CA121231E924309009E772
:10474400F09009E7E0900969F07AE87B0912124FCA
:10475400750809750900780812231E7CE87D097A1A
:104764006A7B0912106F74021220CA750802750957
:1047740000780812231E7CF77D827A737B0912105D
:104784006F74021220CA024D63750802750900781D
:104794000812231E7C037D837A597B0912106F74DF
:1047A400021220CA7CDF7D097A0679A01214A1E9DD
:1047B400640A7003024D6D750806750900780812C5
:1047C400231E7CDF7D097A5B7B0912106F74021251
:1047D40020CA750806750900780812231E7C2E7DF0
:1047E4000D7ADF7B0912106F74021220CA75080655
:1047F400750900780812231E7CDF7D097A617B0924
:1048040012106F74021220CA750803750900780823
:1048140012231E7C687D827A677B0912106F7402F2
:104824001220CA7CDF7D097A0679801214A1E9641A
:104834000A7003024D6D7508067509007808122385
:104844001E7CDF7D097A6A7B0912106F74021220C4
:10485400CA750803750900780812231E7C6C7D82D2
:104864007A707B0912106F74021220CA75080275DF
:104874000900780812231E7CF77D827A737B091263
:10488400106F74021220CA024D6375080275090084
:10489400780812231E7C037D837A597B0912106FDA
:1048A40074021220CA7CDF7D097A0679A01214A151
:1048B400E9640A7003024D6D7508067509007808ED
:1048C40012231E7CDF7D097A5B7B0912106F740250
:1048D4001220CA7CDF7D097A0679801214A1E9646A
:1048E4000A7003024D6D75080675090078081223D5
:1048F4001E7CDF7D097A617B0912106F740212201D
:10490400CA750803750900780812231E7C707D821D
:104914007A677B0912106F74021220CA7CDF7D094A
:104924007A0679861214A1E9640A7003024D6D7542
:104934000806750900780812231E7CDF7D097A6A4F
:104944007B0912106F74021220CA750803750900DE
:10495400780812231E7C6C7D827A707B0912106F9A
:1049640074021220CA750802750900780812231E01
:104974007CF77D827A737B0912106F74021220CA4D
:10498400024D63750802750900780812231E7C0322
:104994007D837A597B0912106F74021220CA7CDF5E
:1049A4007D097A0679A01214A1E9640A7003024D04
:1049B4006D750806750900780812231E7CDF7D09D1
:1049C4007A5B7B0912106F74021220CA7CDF7D09A6
:1049D4007A0679801214A1E9640A7003024D6D7598
:1049E4000806750900780812231E7CDF7D097A61A8
:1049F4007B0912106F74021220CA7508037509002E
:104A0400780812231E7C747D827A677B0912106FEA
:104A140074021220CA7CDF7D097A0679981214A1E7
:104A2400E9640A7003024D6D75080675090078087B
:104A340012231E7CDF7D097A6A7B0912106F7402CF
:104A44001220CA750803750900780812231E7C6CAD
:104A54007D827A707B0912106F74021220CA750865
:104A640002750900780812231E7CF77D827A737B15
:104A74000912106F74021220CA024D637508027580
:104A84000900780812231E7C037D837A597B09125E
:104A9400106F74021220CA7CDF7D097A0679A01295
:104AA40014A1E9640A7003024D6D750806750900C6
:104AB400780812231E7CDF7D097A5B7B0912106F54
:104AC40074021220CA7CDF7D097A0679801214A14F
:104AD400E9640A7003024D6D7508067509007808CB
:104AE40012231E7CDF7D097A617B0912106F740228
:104AF4001220CA750803750900780812231E7C78F1
:104B04007D827A677B0912106F74021220CA7CDFDF
:104B14007D097A0679921214A1E9640A7003024DA0
:104B24006D750806750900780812231E7CDF7D095F
:104B34007A6A7B0912106F74021220CA7508037511
:104B44000900780812231E7C6C7D827A707B09121E
:104B5400106F74021220CA750802750900780812D1
:104B6400231E7CF77D827A737B0912106F74021204
:104B740020CA024D63750802750900780812231EC5
:104B84007C037D837A597B0912106F74021220CA48
:104B94007CDF7D097A0679A01214A1E9640A700306
:104BA400024D6D750806750900780812231E7CDF16
:104BB4007D097A5B7B0912106F74021220CA7CDFB4
:104BC4007D097A0679801214A1E9640A7003024D02
:104BD4006D750806750900780812231E7CDF7D09AF
:104BE4007A617B0912106F74021220CA750803756A
:104BF4000900780812231E7CBC7D827A677B091227
:104C0400106F74021220CA7CDF7D097A0679A01223
:104C140014A1E9640A7003024D6D75080675090054
:104C2400780812231E7CDF7D097A6A7B0912106FD3
:104C340074021220CA750803750900780812231E2D
:104C44007C6C7D827A707B0912106F74021220CA08
:104C5400750802750900780812231E7CF77D827A94
:104C6400737B0912106F74021220CA024D63750817
:104C740002750900780812231E7C067D837A597B0D
:104C84000912106F74021220CA7CDF7D097A06793A
:104C9400A01214A1E9640A7003024D6D750806752B
:104CA4000900780812231E7CDF7D097A5B7B0912D8
:104CB400106F74021220CA7CDF7D097A0679921281
:104CC40014A1E9640A7003024D6D750806750900A4
:104CD400780812231E7CDF7D097A617B0912106F2C
:104CE40074021220CA7CE57D097A0279A61214A105
:104CF400E9640A6074750802750900780812231EB5
:104D04007CE57D097A677B0912106F74021220CA50
:104D1400121231E924309009E7F09009E7E0900994
:104D240069F07AE87B0912124F7508097509007851
:104D34000812231E7CE87D097A6A7B0912106F74BD
:104D4400021220CA750802750900780812231E7C15
:104D5400F77D827A737B0912106F74021220CA7A6B
:104D6400597B0912102712102D7F020221DD020146
:104D74003574F612210B7C067D0079307A537B0959
:104D84001210877C067D0079307A287B0D121087FB
:104D94007C287D0D7A0679A01214A1E9640A7005B5
:104DA400790002515A750806750900780812231E05
:104DB4007C287D0D741B1220FFAA82AB8312108104
:104DC40074021220CAE9640170089009387401F071
:104DD40080069009387402F0900938E06402700586
:104DE400790002515A90099C7401F090099D740352
:104DF400F0A37400F07A777B0912102712102D7437
:104E0400101220FFE0645570587C537D097A0679AE
:104E1400861214A1E9640A7005790002515A7508D2
:104E240006750900780812231E7C537D09740C1240
:104E340020FFAA82AB8312108174021220CAE96493
:104E44000170089009F17401F080069009F1740270
:104E5400F09009F1E06402600302515879000251B4
:104E64005A74101220FFE0644D60030251587C53C1
:104E74007D097A0679801214A1E9640A7005790023
:104E840002515A750806750900780812231E7C53CE
:104E94007D09740C1220FFAA82AB83121081740264
:104EA4001220CAE9640170089009F17403F08006C5
:104EB4009009F17404F09009F1E06404700579003C
:104EC40002515A74111220FFE024BF601C147003B5
:104ED400024FF31470030250DC14700302511024C7
:104EE400F370030251490251587508067509007898
:104EF4000812231E7C987D8174151220FFAA82ABB0
:104F04008312108174021220CAE96401700612111E
:104F1400D7025158750806750900780812231E7CBB
:104F2400917D8174151220FFAA82AB8312108174C3
:104F3400021220CAE9640170051211DD80D37508DC
:104F440001750900780812231E7C3E7D83741512B6
:104F540020FFAA82AB8312108174021220CAE96472
:104F6400016003024FEE90093D7401F079011211C2
:104F74008F74171220FFE0F8790024D0F8E934FF89
:104F8400F9E875F00AA4C8AAF075F000A42AFA7525
:104F9400F00AE9A42AF990093EE8F0A3E9F07418AC
:104FA4001220FFE0F8790024D0F8E934FFF99009E1
:104FB4003EE028F0A3E039F090093EE0F8A3E0F9E0
:104FC40090093EE0F508A3E0F509E88508F0A4C8D7
:104FD400AAF08509F0A42AFA8508F0E9A42AF99030
:104FE400093EE8F0A3E9F0025158790002515A74DD
:104FF400121220FFE06431702274131220FFAC827D
:10500400AD837A06798612149BE9640A70057900E7
:1050140002515A790212125502515874121220FF89
:10502400E06432702274131220FFAC82AD837A06DE
:10503400799812149BE9640A7005790002515A792F
:105044000312125502515874121220FFE064337097
:10505400367C2E7D0D7A0679801214A1E9640A70DB
:1050640005790002515A74131220FFAC82AD837A81
:1050740006798012149BE9640A7005790002515A7A
:105084007901121255804F74121220FFE0643470BB
:105094004574131220FFAC82AD837A067992121400
:1050A4009BE9640A7005790002515A90093774012A
:1050B400F0750806750900780812231E741512206D
:1050C400FFAC82AD837A347B0D12106F7402122010
:1050D400CA7904121255807C74121220FFE06431E4
:1050E4007072750806750900780812231E7C8A7D83
:1050F4008174151220FFAA82AB83121081740212EC
:1051040020CAE96401704D12152B804874121220D4
:10511400FFE06431703E75080675090078081223B3
:105124001E7C8A7D8174151220FFAA82AB83121023
:105134008174021220CAE964017019C2AF75C9AB47
:1051440075C95B80FE74121220FFE064317005792A
:105154000012125579017F020221DD74F412210B31
:10516400E9FF7E008A088B09780812236200040D87
:105174006E539251B151CE51ED510C522B525852A3
:1051840077528C52C052E952085326534753740144
:105194006F70158C828D83E0C39403500B8C828DC9
:1051A40083E0900DE4F080027E1802538E74026F47
:1051B40070138C828D83E0F8A3E0F9900DE5E8F09C
:1051C400A3E9F080027E1802538E74016F70158C6F
:1051D400828D83E0C39402500B8C828D83E090090E
:1051E400FBF080027E1802538E74016F70158C825E
:1051F4008D83E0C39405500B8C828D83E09009FC71
:10520400F080027E1802538E74016F70158C828DAB
:1052140083E0C39402500B8C828D83E09009FDF0EF
:1052240080027E1802538E74106F702375081075F7
:105234000900780812231E7AFE7B0912106F74028B
:105244001220CA8A088B0985088285098380027E18
:105254001802538E74016F70158C828D83E0C39491
:1052640002500B8C828D83E0900A0EF080027E182F
:1052740002538E74016F700B8C828D83E0900DE865
:10528400F080027E1802538E74046F702A8C828D13
:1052940083C082C0839082CC7808121F84D083D0CC
:1052A4008278081215FC500F8C828D83121FA290F5
:1052B4000A10121FAE80027E1802538EEF70211264
:1052C400071BE970131212F7E9F50879501214A7B5
:1052D400E9F5091212E5800A900AA37401F080022C
:1052E4007E1802538E74016F70158C828D83E0C317
:1052F4009402500B8C828D83E0900A0FF080027E22
:105304001802538E74016F70158C828D83E0C394E0
:105314000A500B8C828D83E0900DE7F0806C7E1830
:10532400806874016F70188C828D83E0C39407C306
:10533400940A500B8C828D83E0900DE9F0804B7EB3
:1053440018804774016F701E900AA2E0F88C828D59
:1053540083E0900AA2F0E87031900AA2E064017040
:10536400291212E580247E188020C3EA9426EB9447
:1053740000501574026F70108C828D83E0FCA3E0E2
:10538400FD1205B9E9FE80027E02EEF97F040221D6
:10539400DD74F012210B74DA1220B489098C0A8DA1
:1053A4000B74361220FFE0FE9081B1C082C0838569
:1053B4001882851983AC82AD83D083D0827406129F
:1053C4001FC7851882851983AC82AD83A90912127F
:1053D40091E9FFEFC3940A4003025525EFF9121235
:1053E400C7E9F508900DE4E06402700474018002DA
:1053F4007400F50C780C122322EEFDAC08EFF9AA28
:105404000AAB0B12133974011220CA7C147D007983
:105414000074121220FFAA82AB831210878A0E8BAB
:105424000F850E0C850F0D74121220FFAC82AD8314
:105434007A1075F006EFA42424F91214A1E970443B
:105444007C1079FF74121220FFAA82AB831210E73A
:10545400E9703174221220FFAC82AD837A0475F0B6
:1054640006EFA42425F91214A1E9F50C74121220F4
:10547400FFAC82AD83E508A2E0E433F9AA0AAB0BE2
:10548400120643E974061220FFAC82AD837A0C74D1
:10549400702FF91214A1E9707574061220FFAA8204
:1054A400AB831212BB7F00805FEFF87900E875F0E0
:1054B40003A4C8AAF075F000A42AFA75F003E9A4BD
:1054C4002AF974061220FFE58228F8E58339F9E801
:1054D400FAE9FB8A828B83E0F8A3E0F9E8496027C4
:1054E4008A828B83A3A3E0F50C750D00780C12233C
:1054F4001E8A828B83E0FCA3E0FDAA0AAB0B120890
:105504009B74021220CAE90FEFC39404409BE50880
:10551400A2E1500D9009FAE0F9AA0AAB0B1208A116
:10552400E974046E700F900DE4E064027007AA0A37
:10553400AB0B121333790074261220CA7F080221A0
:10554400DD74F212210B890BEAFEEBFF8C088D0946
:10555400750A0AE50B600C14600914604414606455
:105564000255E9EEFAEFFB1212D9E9F50AE50AC38E
:10557400940A5071E5084509606B750C06750D00B9
:10558400780C12231EEEFCEFFDAA08AB0912106F73
:1055940074021220CA8A088B0985088285098380CF
:1055A40044EEFAEFFB1212D3E9F50AE50AC3940AB2
:1055B4005033E5084509602DAA08AB09A90A12125F
:1055C400CDE98021EEFAEFFB1212DFE9F50AE50AD4
:1055D400C3940A5010E5084509600AAA08AB09A952
:1055E4000A1212CDE9A90A7F060221DD74F4122100
:1055F4000B890875091574FF6A700374FF6B7029B1
:105604007E008012AC087A027B00EEF91212A9E93E
:1056140060037509000EEEC3940A40E8E50860567D
:105624007A217B13120AB7804D120A998A0A8B0BCE
:10563400AE0AAF0BEE4F603B7C007D00EE2405FA12
:10564400EF3400FB8E828F83A3A3A3A3E0F912128D
:1056540091E9F9E9C3940A500DAC087A027B00126F
:1056640012A9E9750900E508600CEEFAEFFB1213C4
:10567400218003750914A9097F040221DD74F21243
:10568400210BECFEEDFF740E1220FFE0F50AA3E0FF
:10569400F50B75081574FF6A700374FF6B70217540
:1056A4000900E509C3940A505DAC0AAD0BEEFAEFAC
:1056B400FBA9091212AFE96003750800050980E22D
:1056C400120A998A0C8B0D850C82850D83E582451F
:1056D4008360307C007D00E5822405FAE583340094
:1056E400FBA3A3A3A3E0F9121291E9F9E9C3940A75
:1056F4005014AC0AAD0BEEFAEFFB1212AFE97508C9
:10570400008003750814A9087F060221DD74F012D5
:10571400210B74EC1220B48A828B83A3A3E024FAB5
:105724007003025C3224FD7003025AAB147003024E
:1057340057FE14601024FD7003025A5514700302BE
:105744005AE8025C55EAFEEBFF900A14E0F8A3E085
:10575400F9E8496069900A14E0F8A3E0F5838882C7
:10576400E0F8A3E0F9E8496055EE240CF582EF3443
:1057740000F583E0F5087808122322EE240BF58265
:10578400EF3400F583E0F98E828F83A3A3A3A3A350
:10579400A3A3A3A3E0FCA3E0FDEE2403FAEF3400EB
:1057A400FB900A14E0F8A3E0F5838882E0F8A3E014
:1057B400F583888212210974011220CA80398E82ED
:1057C4008F83A3A3A3A3A3A3A3A3A3122335900A04
:1057D40010121FA212065574021220CAE960187929
:1057E400018E828F83A3A3A3A3A3A3A3A3A3E0FAFD
:1057F400A3E0FB12064FE9025C55EAFEEBFF8E8242
:105804008F83A3E06003025A038E828F83A3A3A332
:10581400A3A3E0A2E04003025A037C0E7D007900BA
:10582400851882851983AA82AB831210878A088B14
:1058340009AA08AB098E828F83A3A3A3A3A3A3A35E
:10584400A3E0F8A3E0F9E849604D7508067509007E
:10585400780812231E8E828F83A3A3A3A3A3A3A3DA
:10586400A3E02410FCA3E03400FD74021220FFAA7C
:1058740082AB8312106F74021220CA8A088B0985C6
:1058840008828509838E828F83A3A3A3A3A3E0A2A6
:10589400E25052D2F080508E828F83A3A3A3E0FA09
:1058A400A3E0FB120A998A088B09AA08AB09EA4B00
:1058B4006030750806750900780812231EEA24056D
:1058C400FCEB3400FD74021220FFAA82AB83121099
:1058D4006F74021220CA8A088B098508828509839D
:1058E40080A3025C55C2F0A2F0E433F87900740C92
:1058F4001220FFE048F0A3E049F08E828F83A3A337
:10590400A3A3A3A3A3A3A3A3E0F8A3E0F9E8496096
:10591400228E828F83A3A3A3A3A3A3A3A3A3A3E001
:105924002410F8A3E03400F9888289837808121FD0
:105934008480089081E87808121F848E828F83A364
:10594400A3A3A3A3A3A3A3A3A3E0F8A3E0F9E84913
:1059540060178E828F83A3A3A3A3A3A3A3A3A3A34C
:10596400E0F50CA3E0F50D8006750C00750D008EB6
:10597400828F83A3A3A3A3A3A3A3A3E0F8A3E0F923
:10598400E84960158E828F83A3A3A3A3A3A3A3A333
:10599400E0F50EA3E0F50F8006750E00750F007894
:1059A4000812231A780C12231E780E12231EEE24DA
:1059B4000CF582EF3400F5831223358E828F83A396
:1059C400A3A3A3A3A3E0FCA3E0FD740A1220FFAAEF
:1059D40082AB831212C1740A1220CAE9F5088E82BE
:1059E4008F83A3A3A3E0F8A3E0F9900AA4E8F0A3AB
:1059F400E9F07A017B009009FAE0F91210C3E9900A
:105A04000A14E0F8A3E0F9E8496043900A14E0F8C6
:105A1400A3E0F5838882A3A3E0F8A3E0F9E8496052
:105A24002D8E828F83A3E0FC79018E828F83A3A3C2
:105A3400A3E0FAA3E0FB900A14E0F8A3E0F583885E
:105A440082A3A3E0F8A3E0F5838882122109025C13
:105A540055EAFEEBFF900A14E0F8A3E0F9E8496088
:105A640043900A14E0F8A3E0F5838882A3A3E0F846
:105A7400A3E0F9E849602D8A828B83A3E0FC7902D4
:105A84008E828F83A3A3A3E0FAA3E0FB900A14E021
:105A9400F8A3E0F5838882A3A3E0F8A3E0F5838864
:105AA40082122109025C55EAFEEBFF7C007D00EEC8
:105AB4002404FAEF3400FB8E828F83A3A3A3E0F9BE
:105AC400121291E9F8E8C3940A5016EE240AFCEF86
:105AD4003400FD7A0475F006E8A42425F912149B19
:105AE400E9025C55EAFEEBFF900A0FE06018900DA6
:105AF400E7E0F98E828F83A3A3A3E0FAA3E0FB126D
:105B0400064FE9025C55900DE4E0701579058E822C
:105B14008F83A3A3A3E0FAA3E0FB12064FE9025C80
:105B2400558E828F83A3A3A3E0FAA3E0FB120A9904
